:100000000C9412010C943A010C943A010C944F0D8B
:100010000C943A010C943A010C943A010C943A0174
:100020000C943A010C943A010C945F150C94F8135B
:100030000C943A010C943A010C943A010C943A0154
:100040000C943A010C943A010C943A010C943A0144
:100050000C943A010C943A010C943A010C94B410AB
:100060000C943A010C94930E0C94C50E0C943A0126
:100070000C943A010C943A010C943A010C943A0114
:100080000C943A010C943A010C943A010C943A0104
:100090000C943A010C943A010C943A010C943A01F4
:1000A0000C943A010C943A010C943A01EE18F118B0
:1000B000E018E418EA18121912191219F518F918AB
:1000C000FD180319071912190D19084AD73B3BCE21
:1000D000016E84BCBFFDC12F3D6C74319ABD568347
:1000E0003DDA3D00C77F11BED9E4BB4C3E916BAAFF
:1000F000AABE000000803F05A84CCDB2D44EB9384E
:1001000036A9020C50B9918688083CA6AAAA2ABE34
:10011000000000803F0012010002EF020140FB1FBF
:100120000023000101020301506F6C6F6C752041C8
:100130002D53746172203332553400506F6C6F6CE4
:100140007520436F72706F726174696F6E00040383
:100150000904080B00020202010009040000010268
:1001600002000005240010010524010101042402FD
:10017000060524060001070581031000400904015B
:1001800000020A0000000705020240000007058384
:10019000024000000000000200090F0000030401FB
:1001A000000C000000000000000000000000000043
:1001B00000000004080201104080401020408040F0
:1001C00080080204018040201002011080102040AD
:1001D0004020040404040403040502020202040390
:1001E00002020202060606060606040402020204D1
:1001F00004000000002300260029002C002F00002E
:10020000000000250028002B002E00310000000017
:1002100000240027002A002D00300000D70CF50E26
:10022000DF16E20C11241FBECFEFDAE0DEBFCDBF38
:1002300013E0A0E0B1E0EAE4FEE302C005900D9215
:10024000AC34B107D9F724E0ACE4B3E001C01D92AF
:10025000AC38B207E1F711E0C1E1D1E004C0219769
:10026000FE010E94111ACE30D107C9F70E949F10DB
:100270000C94181F0C9400008F929F92AF92BF9223
:10028000CF92DF92EF92FF920F931F93CF93DF9362
:10029000EB015A01BC0180E090E00E94CA1B20E003
:1002A00030E44CE156E40E94221B2BED3FE049EC88
:1002B0005FE30E943A1A6B017C01C13D87E0D807D9
:1002C00010F0C0E0D0E081EDA81687E0B80610F08D
:1002D000A12CB12CB50180E090E00E94CA1B20E067
:1002E00030E040E251E40E94221B0E94941B072E42
:1002F000000C880B990B0E94CC1B4B015C01BE01CA
:1003000080E090E00E94CA1B20E030E040E251E42F
:100310000E94221B9B01AC0160E070E08CE093E442
:100320000E94391A0E94941B072E000C880B990B0F
:100330000E94CC1BAB01BC01950184018091540348
:10034000909155030E946F03C0915403D0915503BF
:100350000E94FE10CD5BDF4F688379838A839B8385
:10036000DF91CF911F910F91FF90EF90DF90CF9091
:10037000BF90AF909F908F9008950E94FA0880934D
:1003800052039093530386FF0AC060E487E00E9403
:10039000870980915403909155030C94EB0A0895BA
:1003A000CF92DF92EF92FF920F931F93CF93DF9341
:1003B00000D0CDB7DEB726E040E855E260E070E05F
:1003C00089E793E00E942E0E63EC71E089E793E0E9
:1003D0000E94620F8DE490E00E94B2108C010E9496
:1003E000DF021093550300935403109253031092AD
:1003F0005203109251031092500340E050E060E02D
:1004000070E0C8010E94BF04C12CD12C7601970175
:100410008601B701A60180915403909155030E9473
:100420006F0300915403109155030E94FE10F801D0
:10043000618F728F838F948F0E94310D6AE070E01C
:1004400080E090E00E942F116AE871E089E793E074
:100450000E94620F0E94190A61E571E089E793E04A
:100460000E94620F6AE070E080E090E00E942F112D
:1004700082E489838FE08A8342E050E0BE016F5FAF
:100480007F4F82E693E00E94770A6DE171E089E791
:1004900093E00E94620FE0915403F091550313A280
:1004A000E0915403F091550385AD811103C00E9482
:1004B000BD01F6CF69E271E089E793E00E94620F27
:1004C0006CE17CE080E090E00E942F116AE371E033
:1004D00089E793E00E94620FE0915403F091550385
:1004E00086AD811103C00E94BD01F6CF6AE471E0C0
:1004F00089E793E00E94620FE0915403F091550365
:1005000013A2158E80E090E0ACE8B2E48487958772
:10051000A687B78780E090E0A0E2B2E4808B918B61
:10052000A28BB38B0F900F90DF91CF911F910F9102
:10053000FF90EF90DF90CF9008950F931F930E944C
:10054000BD01809150039091510301966AE070E0E3
:100550000E94A8199093510380935003892B39F579
:1005600080915403909155030E949303809154030A
:10057000909155030E9492050E94FE1000914C0339
:1005800010914D0320914E0330914F03DC01CB01BC
:10059000801B910BA20BB30B883B9B40A105B105BF
:1005A00030F480915403909155030E944F0861E00C
:1005B00070E080E090E01F910F910C942F11CF9389
:1005C000DF93EC018CE99FEF98AB8FA784E690E076
:1005D0009AAB89AB9CAB8BAB8DEC9CECACE0BFE3F6
:1005E0008DAB9EABAFABB8AF8AE097EDA3EABEE3AD
:1005F00089AF9AAFABAFBCAF1DAE1EAE18821982E9
:100600001A821B821C821D821E821F8218861986F6
:100610001A861B861C861D861E861F86188A198AC6
:100620001A8A1B8A1E8A1D8A188E1F8A198E1A8E94
:100630001B8E1C8E81E08D8F1C8A1E8E1F8E18A231
:1006400019A21AA28BA30E94FE106CA37DA38EA3F5
:100650009FA319A618A61DAE1EAEFE01E95BFF4FB3
:10066000118210823296118210823296118210828B
:100670001AA60E94FE106BA77CA78DA79EA7CD5B34
:10068000DF4F188219821A821B82DF91CF91089561
:10069000CF92DF92EF92FF92CF93DF93EC0128810C
:1006A00039814A815B816C857D858E859F850E941D
:1006B000391A6B017C012C813D814E815F816889F3
:1006C00079898A899B890E94391AA7019601DF914D
:1006D000CF91FF90EF90DF90CF900C94B91ACF920A
:1006E000DF92EF92FF920F931F93CF93DF93EC0172
:1006F000488359836A837B830C831D832E833F83C6
:10070000C886D986EA86FB860E94FE10698F7A8F9A
:100710008B8F9C8FDF91CF911F910F91FF90EF9066
:10072000DF90CF9008954F925F926F927F928F9259
:100730009F92AF92BF92CF92DF92EF92FF920F9370
:100740001F93CF93DF93CDB7DEB72C970FB6F894F6
:10075000DEBF0FBECDBF8C01DC0155966D917C9143
:100760005697072E000C880B990B0E94CC1B20E09B
:1007700030E04FE753E40E94221B29E432E944EEC3
:1007800051E40E94EF1C4B015C01F8016789708DF8
:10079000072E000C880B990B0E94CC1B20E030E048
:1007A0004FE753E40E94221B29E432E944EE51E46E
:1007B0000E94EF1C2B013C019B01AC01C501B4015F
:1007C0000E943A1A20E030E040EE5FE30E94EF1C06
:1007D00020E030E040E05FE30E94EF1C6B017C0111
:1007E000D80118968D919D910D90BC91A02D898373
:1007F0009A83AB83BC83BC01CD010E941D1B9B016E
:10080000AC01C701B6010E94EF1C6D837E838F830C
:10081000988769817A818B819C810E945C1D9B01F4
:10082000AC01C701B6010E94EF1C69877A878B87EC
:100830009C87F801C18CD28CE38CF48C0E94FE1052
:10084000D80159966D937D938D939C935C976C1909
:100850007D098E099F090E94CC1B20E030E04AE709
:1008600054E40E94221B6B017C01D801D5968D9126
:100870009D910D90BC91A02D89839A83AB83BC83FD
:10088000A70196016D817E818F8198850E94EF1C62
:1008900029813A814B815C810E94EF1C9B01AC0154
:1008A000F80160817181828193810E943A1AD80196
:1008B0006D937D938D939C931397A7019601698502
:1008C0007A858B859C850E94EF1C29813A814B811A
:1008D0005C810E94EF1C9B01AC01F8016481758171
:1008E000868197810E943A1AD80114966D937D9360
:1008F0008D939C931797A3019201C501B4010E94A7
:10090000391A20E030E040EE5FE30E94EF1C2DEC4E
:100910003CEC44E151E40E94221BA70196010E9495
:10092000EF1CF80121AD32AD43AD54AD0E94EF1C78
:100930009B01AC01D80118966D917D918D919C9190
:100940001B970E943A1AF801608771878287938704
:100950002C960FB6F894DEBF0FBECDBFDF91CF91BE
:100960001F910F91FF90EF90DF90CF90BF90AF90CD
:100970009F908F907F906F905F904F9008958F928F
:100980009F92AF92BF92EF92FF920F931F93CF93DC
:10099000DF936D3221E0720724F44D32E1E05E070F
:1009A00084F06CEF71E089E793E0DF91CF911F91C4
:1009B0000F91FF90EF90BF90AF909F908F900C940D
:1009C0006F0FFC0123A1222381F060E070E080E042
:1009D00090E0DF91CF911F910F91FF90EF90BF902A
:1009E000AF909F908F900C94CC188A017B01EC0102
:1009F000868D882391F00E94FE108F8C98A0A9A06C
:100A0000BAA0DC01CB0188199909AA09BB09883170
:100A10009947A105B105C8F21E8E8F89988D801760
:100A2000910729F48D899E898E159F0559F0CE0175
:100A30000E949303B801C7010E94CC18FE8AED8A78
:100A4000188F0F8BDF91CF911F910F91FF90EF9037
:100A5000BF90AF909F908F900895CF93DF93EC015C
:100A600040E050E060E070E00E94BF0481E08E8FC3
:100A70000E94FE106F8F78A389A39AA3DF91CF9174
:100A800008950F931F93CF93DF93EC018901BA016F
:100A9000550F880B990B0E94CC1B6C877D878E8726
:100AA0009F87B801110F880B990B0E94CC1B688B94
:100AB000798B8A8B9B8B1D8E1BA281E08C8BEF9692
:100AC000188219821A821B82DF91CF911F910F9198
:100AD0000895CF93DF93EC0124E630E040E050E04E
:100AE00068E270E080E090E00E947A100E94CC1BE7
:100AF0006C877D878E879F8727E330E040E050E05A
:100B000069E170E080E090E00E947A100E94CC1BC6
:100B1000688B798B8A8B9B8B1D8E1BA21C8ADF9125
:100B2000CF9108952F923F924F925F926F927F9252
:100B30008F929F92AF92BF92CF92DF92EF92FF92ED
:100B40000F931F93CF93DF9300D000D0CDB7DEB7C4
:100B50001C010E94FE104B015C0171012FE3E20EAB
:100B6000F11CD7012D913D914D915C9129833A83E0
:100B70004B835C836101B3E4CB0ED11CF601408052
:100B8000518062807380D1019A968C918823E9F01C
:100B90006BE272E089E793E00E946F0F0E94FE1003
:100BA000DC01CB01885A9D4FAF4FBF4FF10183A7A6
:100BB00094A7A5A7B6A767A570A9AB01C1010E941C
:100BC000BF04D1019A961C922FC20E94FE10F1011F
:100BD00003A514A525A536A5061717072807390765
:100BE00060F06DE372E089E793E00E946F0FD1013E
:100BF0009F966D917C91D09762C0D501C4018419F4
:100C00009509A609B709813AEFE09E07A105B1054C
:100C100098F081379741A105B10508F45CC0F60151
:100C200080819181A281B38188579C4EAF4FBF4F85
:100C300080839183A283B383D501C40129813A8142
:100C40004B815C81821B930BA40BB50B88389341BD
:100C5000A105B105B0F50E94FE1069387341810508
:100C6000910578F1F101148A36C020E030E040ECC3
:100C700050E4C501B4010E94181B87FFAAC1D1012D
:100C800098968D919C9199970297029768F40E948B
:100C9000FE10DC01CB018C509E4FAF4FBF4FF101D6
:100CA00084A395A3A6A3B7A384E090E0D10199966D
:100CB0009C938E939897D1966D917C91D297AB012E
:100CC0000EC0D7011D921D921D921C921397F10127
:100CD00083A18823E9F040E050E060E070E0C101CA
:100CE0000F900F900F900F90DF91CF911F910F9168
:100CF000FF90EF90DF90CF90BF90AF909F908F903C
:100D00007F906F905F904F903F902F900C94BF0416
:100D1000D1015D968C915D97882371F154968C91E9
:100D2000811119C0C1010F900F900F900F90DF91AA
:100D3000CF911F910F91FF90EF90DF90CF90BF90D8
:100D4000AF909F908F907F906F905F904F903F906B
:100D50002F900C94690563E472E089E793E00E94A8
:100D6000620F0E94FE10F701608371838283938378
:100D7000D10154961C9258C1F101248535854685D0
:100D8000578560817181828193810E94391A6B013C
:100D90007C0120E030E0A9010E94E21C18165CF4FE
:100DA00020E030E040E450E4C701B6010E94181B87
:100DB00087FF4CC00BC020E030E040E450ECC7019E
:100DC000B6010E94E21C18160CF040C0D1015096EA
:100DD0002D913D914D915C91539714966D917D911C
:100DE0008D919C9117970E94391A6B017C0120E02C
:100DF00030E0A9010E94E21C18165CF420E030E00B
:100E000040E450E4C701B6010E94181B87FF1EC0D2
:100E10000AC020E030E040E450ECC701B6010E9477
:100E2000E21C18169CF440E050E060E070E0C10164
:100E30000E94BF04F1011486158616861786108A53
:100E4000118A128A138A81E0858FEEC0C1010E9447
:100E500048034B015C01F101408451846284738436
:100E6000A30192010E94391A6B017C0120E030E05D
:100E7000A901C301B2010E94181B87FF0BC02BED13
:100E80003FE049EC50E4C301B2010E943A1A2B0141
:100E90003C01ECCF2BED3FE049EC50E4C301B20143
:100EA0000E94E21C18165CF42BED3FE049EC50E484
:100EB000C301B2010E94391A2B013C01EBCF20E0A3
:100EC00030E0A901C501B4010E94181B87FF0BC0C7
:100ED0002BED3FE049EC50E4C501B4010E943A1A01
:100EE0004B015C01ECCF2BED3FE049EC50E4C50138
:100EF000B4010E94E21C18165CF42BED3FE049ECB3
:100F000050E4C501B4010E94391A4B015C01EBCFDA
:100F10002BED3FE049E450E4C701B6010E94E21C1A
:100F200018165CF42BED3FE049EC50E4C701B60124
:100F30000E94391A6B017C01EBCF2BED3FE049E4B5
:100F400050ECC701B6010E94181B87FF0BC02BEDA8
:100F50003FE049EC50E4C701B6010E943A1A6B0128
:100F60007C01EBCF20EE3EE245E652E4C701B6013C
:100F70000E94EF1C4B015C0120E030E0A9010E94BF
:100F8000181B87FF09C020E030E044EB53E4C501A3
:100F9000B4010E943A1AEECF0E94FE10D10194963D
:100FA0004D905D906D907C909797641575058605C2
:100FB000970508F05ACED1966D917C91D297AB01EE
:100FC000C1010E94BF0484E090E0F10191A780A7D5
:100FD0002BC020E030E041EB53E4C501B4010E9496
:100FE000E21C18160CF44BCE20E030E0A901C7013A
:100FF000B6010E94181BF10123A934A987FF0AC07A
:1010000082E090E091A780A766277727621B730B89
:10101000A90165CE83E090E091A780A744275527DA
:10102000421B530BB9015BCE0F900F900F900F90A6
:10103000DF91CF911F910F91FF90EF90DF90CF90B4
:10104000BF90AF909F908F907F906F905F904F90E8
:101050003F902F900895CF92DF92EF92FF920F93DF
:101060001F93CF93DF93EC018C01055B1F4FCB01E6
:10107000BA010E94941BF80171836083C75BDF4F44
:10108000C701B6010E94941B79836883DF91CF91D9
:101090001F910F91FF90EF90DF90CF9008950F93E5
:1010A0001F93CF93DF93CDB7DEB727970FB6F89492
:1010B000DEBF0FBECDBF8C0180E38983F801608560
:1010C0007185828593850E94941B9B01AB0177FFFC
:1010D00002C041505F4F5A83C90160E071E00E9435
:1010E000BC198B83F80160817181828193810E9498
:1010F000941B9B01AB0177FF02C041505F4F5C83A3
:10110000C90160E071E00E94BC198D83F80164811F
:101110007581868197810E94941B9B01AB0177FFAB
:1011200002C041505F4F5E83C90160E071E00E94E0
:10113000BC198F8347E050E0BE016F5F7F4F8DE5A4
:1011400093E00E94770A27960FB6F894DEBF0FBE91
:10115000CDBFDF91CF911F910F910895AF92BF92B4
:10116000CF92DF92EF92FF920F931F93CF93DF9373
:101170008C010E94FE106B017C0128EBC20E2BE05B
:10118000D21EE11CF11CC2E3D0E08CE2A82EBB24ED
:10119000B3940E94FE106C157D058E059F05A8F482
:1011A000CE010196B5010E94BC19EC0144275527D8
:1011B000481B590BBC01C8010E94BF046AE070E0E3
:1011C00080E090E00E942F11E4CF40E050E060E02A
:1011D00070E0C8010E94BF0481E0F80183A3DF91A1
:1011E000CF911F910F91FF90EF90DF90CF90BF9024
:1011F000AF900895CF93DF931F92CDB7DEB72B98B2
:101200008EE190E00E946B1189E1898361E0CE015B
:1012100001960E94EC0C2B9A8EE190E00E946B11DB
:10122000898190E00F90DF91CF9108950F931F93E4
:10123000CF93DF931F92CDB7DEB78C012B988EE151
:1012400090E069830E946B1182E390E00E946B1131
:101250006981C8010E94EC0C2B9A8EE190E00E94FB
:101260006B1161E070E080E090E00F90DF91CF9132
:101270001F910F910C942F11CF93DF931F92CDB735
:10128000DEB782EE898361E070E0CE0101960E94B4
:10129000160981EE898361E070E0CE0101960E941B
:1012A00016090F90DF91CF910895FF920F931F932E
:1012B000CF93DF9300D0CDB7DEB78C01F62E2B98FD
:1012C0008EE190E04A830E946B114A81498361E07C
:1012D000CE0101960E94EC0C82E390E00E946B111B
:1012E0006F2DC8010E94EC0C2B9A8EE190E00E94B9
:1012F0006B1161E070E080E090E00E942F110F9090
:101300000F90DF91CF911F910F91FF9008950F9350
:101310001F93CF93DF9300D0CDB7DEB7182F062FE2
:10132000853091F4809156039091570301969093E4
:1013300057038093560303973CF063E572E089E717
:1013400093E00E946F0F22C02B988EE190E00E94E4
:101350006B111F7110621A8361E0CE0102960E9428
:10136000EC0C82E390E00E946B11098361E0CE01F6
:1013700001960E94EC0C2B9A8EE190E00E946B117A
:1013800061E070E080E090E00E942F110F900F90DC
:10139000DF91CF911F910F910895DF92EF92FF920D
:1013A0000F931F93CF93DF9300D000D000D0CDB721
:1013B000DEB7F82EFB0135968E010F5F1F4FCE0171
:1013C0000696D02EE12E2291D8012D938D01A817DB
:1013D000B907C9F72B988EE190E00E946B112F2D71
:1013E0002F7120622E8361E0C8010E94EC0C82E321
:1013F00090E00E946B1165E08D2D9E2D0E94EC0CFB
:101400002B9A8EE190E00E946B1161E070E080E029
:1014100090E00E942F1126960FB6F894DEBF0FBE03
:10142000CDBFDF91CF911F910F91FF90EF90DF9093
:101430000895CF93109257031092560381EE809334
:10144000660380EF80936503809364038093630356
:101450008093620382EE8093610391E9909360032D
:1014600098EA90935F0397E290935E0395E89093D8
:101470005D0398E990935C0395E690935B039AEF84
:1014800090935A0399E290935903809358036FE322
:1014900082E00E9487096AE884E00E9487096FE67B
:1014A00085E00E94870966E086E00E948709C1E125
:1014B00060E28C2F0E948709CF5FC731C9F76FE3C5
:1014C0008CE10E94870967E08DE10E94870968E549
:1014D00073E08AE090E00E94CD096FE080E00E9416
:1014E0008709479A8EE190E0CF910C946B11AF92EF
:1014F000BF92CF92DF92EF92FF920F931F93CF9301
:10150000DF93CDB7DEB76C015B017A010DB71EB773
:10151000BC0180E190E00E94CD09B6018AE090E034
:101520000E94CD096EE080E00E948709B7016F5FDD
:101530007F4F8DB79EB7861B970B0FB6F8949EBF53
:101540000FBE8DBF019640EAEDB7FEB74183F501AE
:10155000DC011196AD01481B590BE416F5061CF091
:1015600041914D93F7CF0E9416090E94FE106B0126
:101570007C010E94FA0880739927892B71F40E94DC
:10158000FE10DC01CB018C199D09AE09BF09C39780
:10159000A105B10570F30E943C0960E387E00E9459
:1015A000870968E573E08AE090E00E94CD096FE06A
:1015B00080E00E9487090FB6F8941EBF0FBE0DBFD2
:1015C000DF91CF911F910F91FF90EF90DF90CF901F
:1015D000BF90AF9008954F925F926F927F928F92DB
:1015E0009F92AF92BF92CF92DF92EF92FF920F93B2
:1015F0001F93CF93DF93CDB7DEB72F970FB6F89435
:10160000DEBF0FBECDBF5C018DB69EB640E661E089
:1016100070E0CE010B960E9455096B85662309F494
:10162000AAC170E08DB79EB7861B970B0FB6F894D2
:101630009EBF0FBE8DBFEDB7FEB731967F0141E66D
:10164000CF010E945509F7019081903509F4F5C04A
:1016500008F050C0923409F4AFC008F042C0913095
:1016600009F484C1903309F07BC1F701658170E012
:10167000762F66278681680F711D072E000C880B58
:10168000990B0E94CC1B6C877D878E879F87F70103
:10169000638170E0762F66278481680F711D072EA5
:1016A000000C880B990B0E94CC1B2B013C01F7010D
:1016B000618170E0762F66278281680F711D072E89
:1016C000000C880B990B0E94CC1BAB01BC01CC8495
:1016D000DD84EE84FF8493018201C5010E942B0802
:1016E00045C1943409F484C008F469C0953409F400
:1016F00083C036C1963609F4FFC060F4913609F410
:10170000AFC0923609F4DCC0903609F029C1F5016A
:1017100013A2D9C0903709F429C1903809F40FC138
:10172000993609F01DC1F7015280838190E0982F0E
:1017300088272481820F911D2AE030E0B9010E94A0
:10174000BC193B01858190E0982F88274681840F42
:10175000911DB9010E94BC197B016EED72E089E711
:1017600093E00E94620F4AE050E0652D89E793E024
:101770000E943F1064EE72E089E793E00E94620FDE
:101780004AE050E0B30189E793E00E941B1068EE45
:1017900072E089E793E00E94620F4AE050E0B701EF
:1017A00089E793E00E941B10652D70E09701A3016B
:1017B000C5010E944105DAC068E872E02CC0F7015B
:1017C000118168E972E089E793E00E946F0F4AE0B7
:1017D00050E0612F89E793E00E943F10612F85E080
:1017E0000E9487090E943C0981E0F50185AFBEC0D7
:1017F00081E0F50186AFBAC0F7018181813081F0C7
:1018000040F08230B9F0833009F0B0C064EC72E08F
:1018100002C064EA72E089E793E00E94620FA6C00A
:101820006FEA72E089E793E00E94620FC5010E94AF
:10183000AE089CC069EB72E0EECFF701818190E0C9
:10184000982F88272281820F911D019621E5208300
:101850009183828343E050E0B70182E693E07DC04C
:10186000F50113A2C5010E942D05F701458150E045
:10187000542F44278681480F511D638170E0762FD5
:1018800066278481680F711D818190E0982F8827D9
:101890002281820F911D0E943C01F501158E80E08E
:1018A00090E0ACE8B2E484879587A687B78780E0AC
:1018B00090E0A0E2B2E4808B918BA28BB38B56C0F8
:1018C00081E0F50182A7F701458150E0542F4427BC
:1018D0008681480F511D638170E0762F66278481D1
:1018E000680F711D818190E0982F88272281820FD7
:1018F000911D0E943C013AC08E010F5F1F4F89E08D
:10190000F80111928A95E9F787E68A87BE01665F3A
:101910007F4F89E793E00E94620FB80189E793E067
:101920000E94620F4AE050E060E070E089E793E0D7
:101930000E94141089E793E00E94C50D17C081E84A
:10194000F701808364E670E080E090E00E942F1150
:101950004B8550E0B7018DE593E00E94770A06C001
:101960006CEE72E089E793E00E946F0F0FB6F89477
:101970009EBE0FBE8DBE0FB6F8949EBE0FBE8DBE2E
:101980002F960FB6F894DEBF0FBECDBFDF91CF917B
:101990001F910F91FF90EF90DF90CF90BF90AF908D
:1019A0009F908F907F906F905F904F90089587E603
:1019B00093E00E9427188AE093E090936803809355
:1019C0006703089589E493E0909368038093670325
:1019D00087E693E00C9437181F93CF93DF932898F2
:1019E000FC0170E0A1E0B0E09F01281B390B261735
:1019F00037079CF527E030E0408150E0022E02C01E
:101A0000559547950A94E2F740FF02C05D9A01C0E0
:101A10005D9845E04A95F1F70000289A10814F9BA8
:101A200009C0ED01022E01C0CC0F0A94EAF7C12BC8
:101A3000C08309C0AD01022E01C0440F0A94EAF729
:101A400040954123408345E04A95F1F700002898EE
:101A50002150310988F63196C7CFDF91CF911F9180
:101A6000089584B1896084B9559A3F9A8AB18B7779
:101A70008AB92B9A8EE190E00E946B114798E9ECAD
:101A8000F0E080818F7E80835A9AE9E6F0E08081E1
:101A90008062808380818F7E8083EA9A08951F927E
:101AA0000F920FB60F9211240F900FBE0F901F9040
:101AB0001895FC01918D228D892F90E0805C9F4FBD
:101AC000821B91098F7399270895FC01918D828D56
:101AD000981731F0828DE80FF11D858D90E0089503
:101AE0008FEF9FEF0895FC01918D828D981761F023
:101AF000828DDF01A80FB11D5D968C91928D9F5F45
:101B00009F73928F90E008958FEF9FEF0895FC01EF
:101B1000538D448D252F30E0842F90E0821B930B52
:101B2000541710F0CF960895019708958BEE9EE01C
:101B3000892B49F080E090E0892B29F00E94EB0E80
:101B400081110C9400000895FC01848DDF01A80F21
:101B5000B11DA35ABF4F2C91848D90E001968F73D5
:101B60009927848FA689B7892C93A089B1898C91F4
:101B700080648C93938D848D981306C00288F389BA
:101B8000E02D80818F7D80830895CF93DF93EC01DA
:101B9000888D8823C9F0EA89FB89808185FD05C08D
:101BA000A889B9898C9186FD0FC00FB607FCF5CFC7
:101BB000808185FFF2CFA889B9898C9185FFEDCF0F
:101BC000CE010E94A40DE7CFDF91CF910895EF924F
:101BD000FF920F931F93CF93DF93EC0181E0888FE7
:101BE0009B8D8C8D981305C0E889F989808185FDCE
:101BF00024C0F62E0B8D10E00F5F1F4F0F731127BF
:101C0000E02E8C8DE8120CC00FB607FCFACFE889E5
:101C1000F989808185FFF5CFCE010E94A40DF1CF17
:101C20008B8DFE01E80FF11DE35AFF4FF0820B8F01
:101C3000EA89FB898081806207C0EE89FF89608321
:101C4000E889F98980818064808381E090E0DF9178
:101C5000CF911F910F91FF90EF900895CF92DF9257
:101C6000EF92FF921F93CF93DF93EC016A017B0108
:101C7000122FE889F98982E080834115514E610570
:101C80007105B1F060E079E08DE390E0A701960185
:101C90000E94D019DA01C9010197A109B109B695CD
:101CA000A79597958795AC01411580E15807A8F055
:101CB000E889F989108260E874E88EE190E0A70174
:101CC00096010E94D019BA01A90141505109610938
:101CD00071097695679557954795EC85FD855083F5
:101CE000EE85FF854083188EEC89FD891083EA8993
:101CF000FB89808180618083EA89FB89808188609B
:101D00008083EA89FB89808180688083EA89FB89F6
:101D100080818F7D8083DF91CF911F91FF90EF9025
:101D2000DF90CF9008951F920F920FB60F9211245B
:101D30002F938F939F93EF93FF93E0918903F091FB
:101D40008A038081E0918F03F091900382FD12C09D
:101D50009081809192038F5F8F73209193038217FC
:101D600051F0E0919203F0E0E758FC4F958F80939B
:101D7000920301C08081FF91EF919F918F912F91EC
:101D80000F900FBE0F901F9018951F920F920FB6D5
:101D90000F9211242F933F934F935F936F937F93F1
:101DA0008F939F93AF93BF93EF93FF9389E793E054
:101DB0000E94A40DFF91EF91BF91AF919F918F91E0
:101DC0007F916F915F914F913F912F910F900FBE37
:101DD0000F901F90189589E793E00E94590D21E01C
:101DE000892B09F420E0822F0895E9E7F3E01382BC
:101DF000128288EE93E0A0E0B0E084839583A6830E
:101E0000B78380E193E0918380838DEC90E09587A8
:101E100084878CEC90E09787868788EC90E0918BA4
:101E2000808B89EC90E0938B828B8AEC90E0958B91
:101E3000848B8EEC90E0978B868B118E128E138E96
:101E4000148E0895CF92DF92EF92FF920F931F931B
:101E5000CF93DF936C017A018B01C0E0D0E0CE1507
:101E6000DF0589F0D8016D918D01D601ED91FC91CE
:101E70000190F081E02DC6010995892B11F47E01B6
:101E800002C02196ECCFC701DF91CF911F910F9136
:101E9000FF90EF90DF90CF9008956115710579F074
:101EA000FB0101900020E9F73197AF01461B570B6A
:101EB000DC01ED91FC910280F381E02D099480E03A
:101EC00090E008950C944D0FDC01ED91FC91019090
:101ED000F081E02D09946EE173E00C944D0F0F93A7
:101EE0001F93CF93DF93EC010E944D0F8C01CE0125
:101EF0000E946B0F800F911FDF91CF911F910F9167
:101F000008954F925F926F927F92EF92FF920F939C
:101F10001F93CF93DF93CDB7DEB7A1970FB6F89499
:101F2000DEBF0FBECDBF7C01FA01CB0119A222306A
:101F300008F42AE08E010F5D1F4F422E512C612CB8
:101F4000712CBF01A30192010E94D019F901CA01AD
:101F5000015011096A3014F4605D01C0695CD80158
:101F60006C93232B242B252B61F7B801C7010E940A
:101F70004D0FA1960FB6F894DEBF0FBECDBFDF9117
:101F8000CF911F910F91FF90EF907F906F905F9096
:101F90004F900895CF92DF92EF92FF920F931F938D
:101FA000CF93DF93EC016A017B012115310579F4B0
:101FB000E881F9810190F081E02D642FDF91CF91CC
:101FC0001F910F91FF90EF90DF90CF9009942A30EE
:101FD0003105E9F477FF1AC06DE20E94640F8C01AD
:101FE00044275527BA014C195D096E097F092AE07B
:101FF000CE010E94810F800F911FDF91CF911F9121
:102000000F91FF90EF90DF90CF9008952AE0B701F5
:10201000A601CE01DF91CF911F910F91FF90EF901C
:10202000DF90CF900C94810F9A01AB01770F660B74
:10203000770B0C94CA0F0F931F93CF93DF93EC0190
:102040009A01AB01770F660B770B0E94CA0F8C01C8
:10205000CE010E946B0F800F911FDF91CF911F91D6
:102060000F9108952115310541F4DC01ED91FC91AA
:102070000190F081E02D642F09940C94810F0F934F
:102080001F93CF93DF93EC019A01462F50E060E05D
:1020900070E00E9432108C01CE010E946B0F800F05
:1020A000911FDF91CF911F910F910895CF93DF93EF
:1020B00000D000D0CDB7DEB761157105810591055F
:1020C00079F09B01AC0169833A834B835C830E9466
:1020D000051F29813A814B815C810E94F21903C05E
:1020E00060E070E0CB010F900F900F900F90DF91A8
:1020F000CF910895CF92DF92EF92FF920F931F93AB
:10210000621773078407950784F489019A016B01AC
:102110007C01C901B8016C197D098E099F090E94D3
:1021200056106C0D7D1D8E1D9F1D1F910F91FF90F0
:10213000EF90DF90CF9008950E94131F08950E94A2
:1021400076110E949E108FE194E00E94CE150E94AD
:10215000D001C6E9DDE00E949D022097E1F30E94D4
:10216000960DF9CF0C948A1D1F920F920FB60F9205
:1021700011242F933F938F939F93AF93BF9380919D
:10218000170490911804A0911904B0911A04309189
:10219000160423E0230F2D3720F40196A11DB11D55
:1021A00005C026E8230F0296A11DB11D2093160439
:1021B0008093170490931804A0931904B0931A0401
:1021C00080911B0490911C04A0911D04B0911E04E9
:1021D0000196A11DB11D80931B0490931C04A09334
:1021E0001D04B0931E04BF91AF919F918F913F91B9
:1021F0002F910F900FBE0F901F9018952FB7F89446
:1022000060911704709118048091190490911A0438
:102210002FBF08953FB7F89480911B0490911C0440
:10222000A0911D04B0911E0426B5A89B05C02F3FA8
:1022300019F00196A11DB11D3FBFBA2FA92F982FEC
:102240008827820F911DA11DB11DBC01CD0142E067
:10225000660F771F881F991F4A95D1F708958F92AF
:102260009F92AF92BF92CF92DF92EF92FF926B015B
:102270007C010E940A114B015C01C114D104E104EC
:10228000F10401F10E94E9150E940A11DC01CB0161
:1022900088199909AA09BB09883E9340A105B1058F
:1022A00060F321E0C21AD108E108F10888EE880E37
:1022B00083E0981EA11CB11CC114D104E104F104F7
:1022C00019F7DBCFFF90EF90DF90CF90BF90AF90EA
:1022D0009F908F9008958230910538F0880F991F54
:1022E000880F991F05970197F1F70895789484B5A1
:1022F000826084BD84B5816084BD85B5826085BD02
:1023000085B5816085BDEEE6F0E0808181608083E7
:10231000E1E8F0E0108280818260808380818160CA
:102320008083E0E8F0E0808181608083E1E9F0E093
:10233000808182608083808181608083E0E9F0E039
:10234000808181608083E1ECF0E080818460808323
:10235000808182608083808181608083E3ECF0E013
:10236000808181608083E0ECF0E080818260808306
:10237000E2ECF0E0808181608083EAE7F0E0808138
:10238000846080838081826080838081816080839B
:1023900080818068808308954091220450912304B5
:1023A000209120043091210442175307B4F49091F6
:1023B000E8009570E1F39091E80092FD19C08093D8
:1023C000F100809122049091230401968F73992744
:1023D000892B19F48EEF8093E8008091220490916C
:1023E00023040196909323048093220481E00895AE
:1023F00080E00895CF92DF92EF92FF920F931F93A8
:10240000CF93DF931F92CDB7DEB7182F062FE42EA0
:10241000862F880F8E5F99830E94CC1183E00E94E3
:10242000CC11F12EC12E9981D92E8C2D8F198017A8
:1024300098F4F601E7FE02C0849101C080810E94F9
:10244000CC11182F80E00E94CC118123FFEFCF1A0E
:10245000DF0A8111EACF01C081E00F90DF91CF91B7
:102460001F910F91FF90EF90DF90CF900895809192
:10247000D70081608093D70080EA8093D80089B527
:10248000806189BD89B5826089BD09B400FEFDCF38
:1024900061E070E080E090E00E942F118091D80010
:1024A0008F7C80618093D8008091E000807F809352
:1024B000E0000895CF93DF931F92CDB7DEB7198266
:1024C000CE0101960E944C160E947917BE016F5FE3
:1024D0007F4F0E94F41689810F90DF91CF9108956C
:1024E0002FB7FC012083F89467706093E90008958A
:1024F000CF93DF931F92CDB7DEB7682FCE01019641
:102500000E9470128091F20099819FBF0F90DF911D
:10251000CF910895EF92FF920F931F93CF93DF9384
:102520001F92CDB7DEB790912604992311F057FF83
:1025300003C08FEF9FEF26C08A017B01682FCE0179
:1025400001960E9470128091F20090E0A80180171D
:1025500091070CF4AC01842FF701815020F0909189
:10256000F1009193FACF4115510521F08091F200CD
:10257000882321F089818FBFCA0104C08BE6809334
:10258000E800F8CF0F90DF91CF911F910F91FF904E
:10259000EF900895CF93DF931F92CDB7DEB741E060
:1025A00050E0BE016F5F7F4F0E948A12019719F4BD
:1025B000898190E002C08FEF9FEF0F90DF91CF9164
:1025C0000895CF93DF931F92CDB7DEB7682FCE016A
:1025D00001960E9470129091E800892F807295FFF9
:1025E00004C09091F20080E4891B99819FBF0F90F5
:1025F000DF91CF9108955F926F927F928F929F9219
:10260000AF92BF92CF92DF92EF92FF920F931F9300
:10261000CF93DF931F92CDB7DEB7582E6B01B42E48
:10262000052F80912604811103C08FEF9FEF77C0A3
:102630008091240480FF05C08091E0008260809337
:10264000E000EB2CF02EA12C8AEF982E852D8072C5
:10265000782E852D8074682E9AE3892EE114F1047A
:1026600009F456C0852D0E94E112182F81110AC06D
:102670009A949920D1F261E070E080E090E00E94AD
:102680002F11ECCF90E0E816F9060CF41E2D652D05
:10269000CE0101960E9470128091E80085FF35C03E
:1026A000212F30E0E21AF30A772029F01150A8F028
:1026B0001092F100FBCFF60157FE07C0115058F001
:1026C00084918093F1003196F9CF115020F08191DF
:1026D0008093F100FACFC20ED31EAA2019F0809287
:1026E000E8000BC08091E80085FD09C08092E800F9
:1026F000AA24A394E114F10441F0A12C06C0E11432
:10270000F10419F461108092E80089818FBFA6CF8F
:10271000A110A8CF84E6809327048B2D902F0F90D3
:10272000DF91CF911F910F91FF90EF90DF90CF90AD
:10273000BF90AF909F908F907F906F905F90089523
:102740001092E90010922304109222049093210425
:10275000809320040895DF92EF92FF920F931F93CE
:10276000CF93DF93D82E8A017B01E40EF51EEB0197
:10277000CE15DF0571F0D7FE03C0FE01849101C0C4
:1027800088810E94CC1121968111F2CF8FEF9FEFAB
:1027900001C0C801DF91CF911F910F91FF90EF9081
:1027A000DF900895CF93DC019B018BEF211531055C
:1027B000E1F0A9012134310514F040E450E090919A
:1027C000E80092FFFCCF942FFB01E21BF30BEA0F12
:1027D000FB1F915028F0C091F100C0833196F9CFD2
:1027E0008093E800241B350BE1CFCB01CF910895F6
:1027F0001F920F920FB60F921124CF92DF92EF9299
:10280000FF920F931F932F933F934F935F936F9379
:102810007F938F939F93AF93BF93EF93FF93CF9348
:10282000DF93CDB7DEB76C97DEBFCDBF1092E90066
:102830008091E80083FF1AC1FE017596FE2E0F2FCE
:1028400088E08E0F8E1729F09091F10090833196D9
:10285000F9CF82EF8093E8002D8927FF05C0809192
:10286000E80080FFFCCF03C08EEF8093E800822F4A
:10287000807609F0E0C03E894F89188D31110CC077
:10288000203829F4809125048093F10002C0109231
:10289000F1001092F100E3C0E42FF0E0F12B3130B1
:1028A00049F42111DCC0319709F0D9C08091250489
:1028B0008D7F0AC0333059F42111D1C0319709F00E
:1028C000CEC080912504826080932504C8C0353035
:1028D00041F48091E80080FFFCCF40684093E30022
:1028E000BEC0363009F07DC0CB8CDC8C123069F56F
:1028F00080E090E00E94A0130E945A1299E09E018D
:102900002F5F3F4F7901F901292F11922A95E9F79D
:1029100099831A8391E09E8390EA98879AEF99872A
:102920002091220430912304275F3F4F3C832B8367
:102930008D83C6010E94A01349E050E0B70180E0FA
:102940000E94AB130E945A128AC0C6010E94A013B3
:102950000E9479176F2D702F0E941D17009719F094
:102960000CF07DC080C0113061F1133009F07BC0E4
:102970008F89882349F1823029F440E862E18BE3B2
:1029800091E006C0813039F440E862E188E291E0EC
:102990000E94FA1162C0833009F065C00E94791765
:1029A0008E010F5F1F4FB8010E943C17F801019084
:1029B0000020E9F73197BF01601B710B40E0C801AF
:1029C000E7CF66E171E002C06EE471E06115710568
:1029D00009F449C0FB01449150E080E80E94AB1328
:1029E0003EC0373009F43FC0383021F481E0809395
:1029F000F10035C0393099F52370A9F5EBE0F1E02D
:102A000081E021E036E39081992361F08093E90031
:102A10002093EB0091919093EC003093ED008F5F49
:102A2000873089F78EE78093EA001092EA008F8959
:102A30008093260414C08B8D9C8D0E94A013898DD9
:102A4000811105C08F2D902F0E94571606C00E943D
:102A500079176F2D702F0E945B17882321F08EEF5E
:102A60008093E80003C081E28093EB006C960FB680
:102A7000F894DEBF0FBECDBFDF91CF91FF91EF91F4
:102A8000BF91AF919F918F917F916F915F914F9186
:102A90003F912F911F910F91FF90EF90DF90CF907A
:102AA0000F900FBE0F901F9018958093E9008091B2
:102AB000F200882319F08AE38093E80008951F92BA
:102AC0000F920FB60F9211242F933F934F935F9362
:102AD0006F937F938F939F93AF93BF93CF93EF9316
:102AE000FF93C091E1008091E100837F8093E1003A
:102AF000C3FF0FC01092E90081E08093EB001092B9
:102B0000EC0082E38093ED001092260488E080932D
:102B1000F000C2FF0CC083E00E945515809127048D
:102B2000882329F080912704815080932704C4FFD3
:102B300010C08091E2008E7E81608093E2008091DF
:102B4000E1008F7E8093E100809124048E7E80617D
:102B500011C0C0FF11C08091E2008E7E8061809321
:102B6000E2008091E1008E7E8093E1008091240458
:102B70008E7E816080932404FF91EF91CF91BF916D
:102B8000AF919F918F917F916F915F914F913F9105
:102B90002F910F900FBE0F901F9018951092260442
:102BA00010922504109224040E9437128091E100B3
:102BB0008E7E8093E1008DE08093E200EEEFFFE7F0
:102BC000859194918B3F9C4D19F481E0809378041A
:102BD00008950895CF93DF931F92CDB7DEB7698331
:102BE000DC01ED91FC910280F381E02D41E050E0A9
:102BF000BE016F5F7F4F09950F90DF91CF910895D0
:102C0000CF93DF93EC018C859D8597FF05C082E013
:102C10000E94CA129D878C878C859D85DF91CF91FC
:102C2000089583E00E94E11290E0089583E00C94FF
:102C30005515FC018485958597FD06C082E00E94AC
:102C4000781290E00196089582E00E94781290E058
:102C50000895FC018485958597FD05C02FEF3FEF12
:102C600035872487089582E00C94CA12CF93DF93AE
:102C7000EC0180911C01882331F083E00E94FB125B
:102C80001816190634F081E090E09B838A8380E077
:102C900090E0DF91CF910895FC0190819E5F908339
:102CA00042E450E062E571E080E80C94AB13FC0173
:102CB00081819081913A59F4813209F048C047E00E
:102CC00050E065E171E080E00E94AB1376C0913284
:102CD000F1F5833291F49381892F90E0982F882722
:102CE0002281822BA0E0B0E0809311019093120129
:102CF000A0931301B093140160C0803239F467E0EF
:102D000070E085E191E00E94D21306C0823209F0A2
:102D100054C0828180931C0180917804882319F02B
:102D2000EEEFFAE002C0E0E0F8E08091150190914A
:102D30001601A0911701B0911801803B9440A105A4
:102D4000B10539F480911C0180FF1FC002C080E0F2
:102D500008950FB6F894A8958091600088618093DB
:102D60006000109260000FBEA895EE3F8AE0F80761
:102D700039F08091FE0A9091FF0A918380831DC0F3
:102D80001092FF0A1092FE0A18C0EE3F2AE0F207E6
:102D900031F0808191819093FF0A8093FE0A87E74A
:102DA00097E7918380839BE088E10FB6F894A8951C
:102DB000809360000FBE9093600081E00895E8E288
:102DC000F4E01382128288EE93E0A0E0B0E0848306
:102DD0009583A683B78381E393E0918380838FEF0C
:102DE0009FEF958784870895EF92FF920F931F932B
:102DF000CF93DF937B01FC01C281D38100E010E01F
:102E0000209781F0E881F9810280F381E02DB701FC
:102E1000CE01099597FD08C0080F191F0884D985B0
:102E2000C02DEECFC80102C08FEF9FEFDF91CF9191
:102E30001F910F91FF90EF9008950F931F93CF93E1
:102E4000DF938B01FC01C281D381209771F0E8816F
:102E5000F9810480F581E02DB801CE010995009734
:102E600031F40884D985C02DF0CF80E090E0DF9167
:102E7000CF911F910F9108950F931F93CF93DF93DD
:102E80008B01FC01C281D381209771F0E881F98127
:102E90000680F781E02DB801CE010995080F111DBC
:102EA0000884D985C02DF0CFF8011082DF91CF9131
:102EB0001F910F9108950F931F93CF93DF938B0171
:102EC000FC01C281D381209771F0E881F9810190E2
:102ED000F081E02DB801CE010995811105C008846B
:102EE000D985C02DF0CF80E0DF91CF911F910F9158
:102EF000089580917D0481110DC082E08093790452
:102F000084E080937A0410927C0410927B0481E028
:102F100080937D0489E794E008957F928F929F9239
:102F2000AF92BF92CF92DF92EF92FF920F931F93D7
:102F3000CF93DF93FC0122853385232B09F479C0DD
:102F40007B01EC01D12C8C85D816F0F40D2D10E00E
:102F50008E859F85F801EE0FFF1FEE0DFF1D9183FB
:102F60008083EA85FB85E00FF11F61E080810E948C
:102F70004F198A859B85FC01E00FF11F61E080817C
:102F80000E941319D394DFCF8AE090E00E946B1166
:102F900010E08C851817A8F4C12ED12CEA85FB858A
:102FA000EC0DFD1D60E080810E9413198A859B85D0
:102FB000FC01EC0DFD1D60E080810E944F191F5F38
:102FC000E8CF0E940A114B015C010E940A11AB017B
:102FD000BC01481959096A097B098E859F85A0E0C3
:102FE000B0E0481759076A077B0718F50E940A11D5
:102FF0006B01C818D908712C8C85781630F7072D0D
:1030000010E0EA85FB85E00FF11F80810E947F19A7
:10301000892B51F4000F111FF701E00FF11F808180
:103020009181C816D90610F07394E6CFD182C08280
:10303000FBCFDF91CF911F910F91FF90EF90DF9029
:10304000CF90BF90AF909F908F907F900895FC019C
:1030500089E493E091838083138212821582148223
:103060001782168211861086138612860895CF93D2
:10307000DF93EC0183E493E0998388838A859B85C1
:10308000009711F00E941F1E8C819D81009711F006
:103090000E941F1E88859985009711F00E941F1EAF
:1030A0008A819B81009711F00E941F1E8E819F8153
:1030B000009721F0DF91CF910C941F1EDF91CF91EB
:1030C00008952E98269A2D98259A2A98229A29981A
:1030D000219A80EA8093800081E18093810080E9D9
:1030E00091E090938700809386001092890010925F
:1030F000880010928B0010928A00089580918504B8
:10310000811105C081E0809385040C9461180895B5
:10311000CF93DF93EC010E947E18D7FF05C0D195B5
:10312000C195D10981E001C080E0C13991E0D907A2
:1031300014F0C0E9D1E0D0938B00C0938A00909145
:103140008704891711F02A9A01C02A98229ADF91E0
:10315000CF910895CF93DF93EC010E947E18D7FFA3
:1031600005C0D195C195D10981E001C080E0C13988
:1031700091E0D90714F0C0E9D1E0D0938900C09361
:10318000880090918604891711F0299A01C0299826
:10319000219ADF91CF910895CF93DF93EB010E94A5
:1031A0008818CE01DF91CF910C94AA1890E0FC0111
:1031B0003197EF30F105B0F5EA5AFF4F0C94111A30
:1031C000809180008F7703C0809180008F7D8093F5
:1031D0008000089580918000877FF9CF84B58F7734
:1031E00002C084B58F7D84BD0895809190008F7753
:1031F00007C0809190008F7D03C080919000877FF1
:103200008093900008958091C0008F7703C08091D3
:10321000C0008F7D8093C00008958091C200877F99
:103220008093C2000895CF93DF9390E0FC01ED54AA
:10323000FE4F2491FC01EE52FE4F8491882361F1F0
:1032400090E0880F991FFC01E35FFD4FC591D49179
:10325000FC01E150FE4FA591B491611109C09FB7E7
:10326000F8948881209582238883EC912E230BC0CB
:10327000623061F49FB7F8943881822F8095832360
:103280008883EC912E2B2C939FBF06C08FB7F894A8
:10329000E8812E2B28838FBFDF91CF9108951F9354
:1032A000CF93DF93282F30E0F901EC56FE4F849145
:1032B000F901ED54FE4FD491F901EE52FE4FC49145
:1032C000CC23C9F0162F81110E94D618EC2FF0E004
:1032D000EE0FFF1FE150FE4FA591B4918FB7F89408
:1032E000111105C09C91ED2FE095E92302C0EC91EE
:1032F000ED2BEC938FBFDF91CF911F910895CF936A
:10330000DF93282F30E0F901EC56FE4F8491F9014C
:10331000ED54FE4FD491F901EE52FE4FC491CC23EF
:1033200091F081110E94D618EC2FF0E0EE0FFF1FF4
:10333000EF50FE4FA591B491EC91ED2381E090E028
:1033400021F480E002C080E090E0DF91CF91089509
:10335000AA1BBB1B51E107C0AA1FBB1FA617B707BB
:1033600010F0A61BB70B881F991F5A95A9F78095D7
:103370009095BC01CD01089597FB072E16F400949B
:1033800007D077FD09D00E94A81907FC05D03EF4AC
:10339000909581959F4F0895709561957F4F089501
:1033A000A1E21A2EAA1BBB1BFD010DC0AA1FBB1F49
:1033B000EE1FFF1FA217B307E407F50720F0A21BBB
:1033C000B30BE40BF50B661F771F881F991F1A9428
:1033D00069F760957095809590959B01AC01BD0152
:1033E000CF010895052E97FB1EF400940E94091A40
:1033F00057FD07D00E94D01907FC03D04EF40C945F
:10340000091A50954095309521953F4F4F4F5F4F8A
:10341000089590958095709561957F4F8F4F9F4F40
:103420000895EE0FFF1F0590F491E02D09940E947E
:103430002A1AA59F900DB49F900DA49F800D911DF9
:1034400011240895B7FF0C94171A0E94171A821BB3
:10345000930B0895A29FB001B39FC001A39F700D6D
:10346000811D1124911DB29F700D811D1124911D8C
:1034700008955058BB27AA270E94511A0C94941CF7
:103480000E945B1C38F00E94621C20F039F49F3FC0
:1034900019F426F40C94311C0EF4E095E7FB0C941F
:1034A0002B1CE92F0E94B91C58F3BA176207730747
:1034B0008407950720F079F4A6F50C94DB1C0EF434
:1034C000E0950B2EBA2FA02D0B01B90190010C0134
:1034D000CA01A0011124FF27591B99F0593F50F44C
:1034E000503E68F11A16F040A22F232F342F4427A4
:1034F000585FF3CF469537952795A795F04053959C
:10350000C9F77EF41F16BA0B620B730B840BBAF06B
:103510009150A1F0FF0FBB1F661F771F881FC2F7D6
:103520000EC0BA0F621F731F841F48F487957795EA
:103530006795B795F7959E3F08F0B0CF9395880FA4
:1035400008F09927EE0F9795879508950E945B1CC8
:1035500060F080E891E009F49EEF0E94621C28F080
:1035600040E851E071F45EEF0CC00C94311C0C94F7
:10357000DB1CE92FE0780E94B91C40F3092E052AD4
:10358000B1F3261737074807590738F00E2E07F80A
:10359000E02569F0E025E0640AC0EF6307F80094D5
:1035A00007FADB01B9019D01DC01CA01AD01EF930E
:1035B0000E94391B0E94941C0E94E91A5F915523B6
:1035C00039F02BED3FE049E450FD49EC0C943A1AF8
:1035D0000895DF93DD27B92FBF7740E85FE3161624
:1035E000170648075B0718F4D92F0E94E71C9F9322
:1035F0008F937F936F930E94641DEAECF0E00E942A
:10360000341C0E94941C2F913F914F915F910E9416
:10361000021DDD2351F09058A2EA2AED3FE049EC6B
:103620005FE3D0785D270E94511ADF910C94941CBF
:103630000E94071C08F481E008950E946B1CE3952A
:103640000C94A51C0E94361B0C94941C0E94621CB6
:1036500058F00E945B1C40F029F45F3F29F00C9465
:103660002B1C51110C94DC1C0C94311C0E94B91CB5
:1036700068F39923B1F3552391F3951B550BBB27A1
:10368000AA2762177307840738F09F5F5F4F220FE6
:10369000331F441FAA1FA9F335D00E2E3AF0E0E8DD
:1036A00032D091505040E695001CCAF72BD0FE2F27
:1036B00029D0660F771F881FBB1F261737074807BB
:1036C000AB07B0E809F0BB0B802DBF01FF27935873
:1036D0005F4F3AF09E3F510578F00C942B1C0C94F0
:1036E000DC1C5F3FE4F3983ED4F3869577956795AD
:1036F000B795F7959F5FC9F7880F911D96958795A8
:1037000097F90895E1E0660F771F881FBB1F6217C6
:1037100073078407BA0720F0621B730B840BBA0B84
:10372000EE1F88F7E09508950E949B1B6894B111E5
:103730000C94DC1C08950E94C11C88F09F5798F0DF
:10374000B92F9927B751B0F0E1F0660F771F881FA6
:10375000991F1AF0BA95C9F714C0B13091F00E94C0
:10376000DB1CB1E008950C94DB1C672F782F8827B1
:10377000B85F39F0B93FCCF3869577956795B395E7
:10378000D9F73EF490958095709561957F4F8F4F56
:103790009F4F0895E89409C097FB3EF4909580955B
:1037A000709561957F4F8F4F9F4F9923A9F0F92F07
:1037B00096E9BB279395F695879577956795B79585
:1037C000F111F8CFFAF4BB0F11F460FF1BC06F5F6B
:1037D0007F4F8F4F9F4F16C0882311F096E911C07D
:1037E000772321F09EE8872F762F05C0662371F09E
:1037F00096E8862F70E060E02AF09A95660F771FB2
:10380000881FDAF7880F9695879597F90895990F8D
:103810000008550FAA0BE0E8FEEF16161706E8079A
:10382000F907C0F012161306E407F50798F0621BBB
:10383000730B840B950B39F40A2661F0232B242B90
:10384000252B21F408950A2609F4A140A6958FEFAF
:10385000811D811D089597F99F6780E870E060E001
:1038600008959FEF80EC0895DF93CF931F930F93FC
:10387000FF92EF92DF927B018C01689406C0DA2EF2
:10388000EF010E94021DFE01E894A591259135915A
:1038900045915591A6F3EF010E94511AFE0197013F
:1038A000A801DA9469F7DF90EF90FF900F911F91D4
:1038B000CF91DF91089500240A9416161706180672
:1038C0000906089500240A94121613061406050624
:1038D00008950C94311C0E94C11CD8F3E894E0E0D8
:1038E000BB279F57F0F02AED3FE049EC06C0EE0FF2
:1038F000BB0F661F771F881F28F0B23A6207730755
:10390000840728F0B25A620B730B840BE3959A95E7
:1039100072F7803830F49A95BB0F661F771F881FA7
:10392000D2F790480C946A1D092E0394000C11F4F0
:10393000882352F0BB0F40F4BF2B11F460FF04C08A
:103940006F5F7F4F8F4F9F4F0895EF93E0FF07C04A
:10395000A2EA2AED3FE049EC5FEB0E94511A0E9477
:10396000941C0F90039401FC9058E7EFF0E00C9446
:10397000761D57FD9058440F551F59F05F3F71F069
:103980004795880F97FB991F61F09F3F79F08795C6
:103990000895121613061406551FF2CF4695F1DF4F
:1039A00008C0161617061806991FF1CF86957105DF
:1039B000610508940895E894BB2766277727CB0113
:1039C00097F908950E94071C08F48FEF08959B0152
:1039D000AC0160E070E080E89FE30C94221B0E9441
:1039E000021D0C94941C0E945B1C38F00E94621C07
:1039F00020F0952311F00C942B1C0C94311C1124F5
:103A00000C94DC1C0E94B91C70F3959FC1F3950FB8
:103A100050E0551F629FF001729FBB27F00DB11D52
:103A2000639FAA27F00DB11DAA1F649F6627B00DE2
:103A3000A11D661F829F2227B00DA11D621F739FCB
:103A4000B00DA11D621F839FA00D611D221F749FD9
:103A50003327A00D611D231F849F600D211D822F20
:103A6000762F6A2F11249F5750409AF0F1F0882347
:103A70004AF0EE0FFF1FBB1F661F771F881F915074
:103A80005040A9F79E3F510580F00C942B1C0C94DC
:103A9000DC1C5F3FE4F3983ED4F3869577956795F9
:103AA000B795F795E7959F5FC1F7FE2B880F911D9E
:103AB0009695879597F908959F930E946B1C0F9098
:103AC00007FCEE5F0C94A51C9B01AC010C94EF1C51
:103AD0009F3F31F0915020F4879577956795B79582
:103AE000880F911D9695879597F908959F938F93C9
:103AF0007F936F93FF93EF939B01AC010E94EF1CA8
:103B0000EF91FF910E94341C2F913F914F915F9153
:103B10000C94EF1CCF93DF938230910510F482E078
:103B200090E0E0918A04F0918B0420E030E0C0E066
:103B3000D0E0309711F14081518148175907C0F00A
:103B40004817590761F482819381209719F09B836C
:103B50008A832BC090938B0480938A0426C02115FE
:103B6000310519F04217530718F49A01BE01DF011D
:103B7000EF010280F381E02DDCCF2115310509F141
:103B8000281B390B2430310590F412968D919C91AD
:103B900013976115710521F0FB019383828304C0A3
:103BA00090938B0480938A04FD01329644C0FD01FA
:103BB000E20FF31F81939193225031092D933C938F
:103BC0003AC02091880430918904232B41F420913C
:103BD00002013091030130938904209388042091DD
:103BE0000001309101012115310541F42DB73EB797
:103BF0004091040150910501241B350BE09188048C
:103C0000F0918904E217F307A0F42E1B3F0B28174D
:103C1000390778F0AC014E5F5F4F2417350748F045
:103C20004E0F5F1F509389044093880481939193B2
:103C300002C0E0E0F0E0CF01DF91CF9108950F9353
:103C40001F93CF93DF93009709F48CC0FC01329748
:103C50001382128200918A0410918B0401151105C0
:103C600081F420813181820F931F2091880430914B
:103C700089042817390779F5F0938904E0938804BB
:103C800071C0D80140E050E0AE17BF0750F4129663
:103C90002D913C911397AD012115310509F1D90101
:103CA000F3CF9D01DA013383228360817181860F16
:103CB000971F8217930769F4EC0128813981260F39
:103CC000371F2E5F3F4F318320838A819B819383EF
:103CD0008283452B29F4F0938B04E0938A0442C03D
:103CE0001396FC93EE931297ED01499159919E0121
:103CF000240F351FE217F30771F480819181840F3F
:103D0000951F029611969C938E93828193811396B0
:103D10009C938E931297E0E0F0E0D80112968D917B
:103D20009C911397009719F0F8018C01F6CF8D91B3
:103D30009C9198012E5F3F4F820F931F2091880422
:103D4000309189042817390769F4309729F41092C3
:103D50008B0410928A0402C0138212821093890489
:103D600000938804DF91CF911F910F9108958F9256
:103D70009F92AF92BF92CF92DF92EF92FF92CF933A
:103D8000DF93EC01688179818A819B8161157105DE
:103D90008105910521F464E279ED8BE597E02DE151
:103DA00033EF41E050E00E94F21949015A019B01B2
:103DB000AC01A7EAB1E40E94171A6B017C01ACEEDA
:103DC000B4EFA50194010E94251ADC01CB018C0DF2
:103DD0009D1DAE1DBF1DB7FF03C00197A109B048CF
:103DE00088839983AA83BB83BC01CD019F77DF9130
:103DF000CF91FF90EF90DF90CF90BF90AF909F90CA
:103E00008F9008950E94B71E089586E091E00E9469
:103E1000B71E08956093060170930701809308010F
:103E200090930901089581E090E0F8940C94181F94
:103E300011E0C1E1D1E004C0FE010E94111A2196F7
:0A3E4000C231D107C9F7F894FFCF93
:103E4A0000008C0480000100000000C18081000095
:103E5A0000FFFFFFFF00E100000000000048454CA2
:103E6A004C4F2073656E740A00434F4E46494720F3
:103E7A0072656365697665640A0057616974696E7B
:103E8A006720666F7220474F0A00474F2121210A97
:103E9A00002D2D2D2D2D2D2D2D2D2D2D2D2D20525D
:103EAA0046204D6F64756C652020496E697469619E
:103EBA006C697A6564202D2D2D2D2D2D2D2D2D2DFE
:103ECA002D2D2D2D2D2D2D2D0A002D2D2D2D2D2D68
:103EDA002D2D2D2D2D2D2D20535049204D617374DC
:103EEA00657220496E697469616C697A6564202D0E
:103EFA002D2D2D2D2D2D2D2D2D2D2D2D2D2D2D2DE8
:103F0A002D0A002D2D2D2D2D2D2D2D2D2D2D2D2D27
:103F1A002D2053657269616C20496E697469616C00
:103F2A00697A6564202D2D2D2D2D2D2D2D2D2D2DCC
:103F3A002D2D2D2D2D2D2D2D2D2D0A004552524F73
:103F4A00523A206E6576657220616C6C6F77656493
:103F5A0020746F2064726976652066617374657275
:103F6A00207468616E203330302100434F4C4C4935
:103F7A00534F4E2048415050454E454400434F4C04
:103F8A002E2E0048617276657374207265616368CB
:103F9A006564005445414D204348414E4E454C20EE
:103FAA004F4E4C5920414C4C4F57454420544F20BA
:103FBA00424520534554204154204D4F53542054D8
:103FCA0057494345212121005265662073656E7465
:103FDA002048454C4C4F0A004E6577206368616E55
:103FEA006E656C005765206C6F7374203A28005711
:103FFA006520776F6E203A290057652074696564D9
:10400A00203A2F00576520776572652064697371BD
:10401A0075616C6966696564203AC2B028005661A8
:10402A006C3A2000583A2000593A2000496C6C65D5
:10403A0067616C204D657373616765204964656EBD
:10404A00746966657200000000008D1700000000A8
:10405A00E70D220F870DC50D590D730D650D0D0A5C
:10406A00006E616E00696E66006F76660000000081
:10407A0000EA153616111616161916291600160014
:0C408A000000009C10000000008D1700DA
:00000001FF
