:100000000C945B000C94010D0C9478000C94780017
:100010000C9478000C9478000C9478000C94780080
:100020000C9478000C94480F0C9478000C94780091
:100030000C9478000C9478000C9478000C94780060
:100040000C9478000C9478000C94690E0C94230F97
:100050000C9478000C9478000C9478000C94780040
:100060000C9478000C947800084AD73B3BCE016E84
:1000700084BCBFFDC12F3D6C74319ABD56833DDAFF
:100080003D00C77F11BED9E4BB4C3E916BAAAABE0E
:10009000000000803F05A84CCDB2D44EB93836A937
:1000A000020C50B9918688083CA6AAAA2ABE000074
:1000B00000803F00CB0F11241FBECFEFD8E0DEBF82
:1000C000CDBF13E0A0E0B1E0ECECFAE202C0059095
:1000D0000D92A635B107D9F724E0A6E5B3E001C03B
:1000E0001D92A030B207E1F70E9418020C94591536
:1000F0000C9400006EE08AE091E00E94F20880918A
:10010000B2039091B3030E9451078091B203909182
:10011000B3030E945107E091B203F091B30383A5AA
:1001200094A596AB85AB0E94F4088CEA9DE00E94F2
:10013000900F60E189E191E00E94F2088091B203A2
:100140009091B3030E9451078091B2039091B30341
:100150000E945107E091B203F091B30383A594A5E7
:100160009C01220F331F45A956A9240F351F36AB1A
:1001700025AB0E94F40868E08AE291E00E94F20850
:10018000E091B203F091B30385A996A963E070E012
:100190000E940210CB0176AB65AB0C94F4088F92F1
:1001A0009F92AF92BF92CF92DF92EF92FF920F9306
:1001B0001F93CF93DF93EB015A01BC0180E090E0E5
:1001C0000E94101220E030E44CE156E40E946811D5
:1001D0002BED3FE049EC5FE30E9480106B017C0156
:1001E000C13D87E0D80710F0C0E0D0E081EDA8164F
:1001F00087E0B80610F0A12CB12CB50180E090E0AA
:100200000E94101220E030E040E251E40E946811A8
:100210000E94DA11072E000C880B990B0E94121213
:100220004B015C01BE0180E090E00E94101220E0D2
:1002300030E040E251E40E9468119B01AC0160E0B3
:1002400070E08CE093E40E947F100E94DA11072E88
:10025000000C880B990B0E941212AB01BC01950196
:1002600084018091B2039091B3030E948F03C091E7
:10027000B203D091B3030E94C80FCA59DF4F6883FD
:1002800079838A839B83DF91CF911F910F91FF9098
:10029000EF90DF90CF90BF90AF909F908F90089598
:1002A0000E942B098093B4039093B50386FF0AC084
:1002B00060E487E00E94B8098091B2039091B30393
:1002C0000C941A0B0895AF92BF92CF92DF92EF92E7
:1002D000FF920F931F93CF93DF9300D0CDB7DEB77C
:1002E0001092B1031092B0031092AF031092AE03BC
:1002F0000E94E30860E875E280E090E00E94BD0E95
:100300000E94C30C6DE183E391E00E94F2088AE64B
:1003100090E00E94D0135C010E947F02B092B30370
:10032000A092B203F501C084D184E284F3840481F5
:100330001581268137814081518162817381C50198
:100340000E948F03A090B203B090B3030E94C80F25
:10035000F501608F718F828F938F40E050E060E0F5
:1003600070E08091B2039091B3030E94E3048AE0AD
:1003700090E00E94900F0E94450A8AE090E00E945F
:10038000900F64E281E591E00E94F20884E690E03B
:100390000E94900F82E4898388E18A8342E050E0E2
:1003A000BE016F5F7F4F85EF93E00E94A60A6BE06E
:1003B00085E791E00E94F208E091B203F091B30367
:1003C000EC59FF4F8081811103C00E945001F4CF8E
:1003D00060E181E891E00E94F2080E947A0068E101
:1003E00082E991E00E94F208E091B203F091B30338
:1003F000EB59FF4F8081811103C00E945001F4CF5F
:1004000066E08AEA91E00E94F2088091B20390913E
:10041000B3030E9452030F900F90DF91CF911F9171
:100420000F91FF90EF90DF90CF90BF90AF90089525
:100430000E946301C12CD12C7601CAE2D0E00AE00F
:1004400010E08091B0039091B10301969093B103B5
:100450008093B0030E9450018091B0039091B1034A
:10046000BE010E94EE0F9093B1038093B003892BDD
:1004700031F48091B2039091B3030E9417088091E8
:10048000AE039091AF030196B8010E94EE0F9093D6
:10049000AF038093AE03892B19F58091B20390913D
:1004A000B3030E94B3038091B2039091B3030E94FF
:1004B0003E050E94C80FDC01CB018C199D09AE09D5
:1004C000BF09813D9740A105B10550F08091B2036D
:1004D0009091B3030E949A070E94C80F6B017C01A0
:1004E00081E090E00E94900FACCF83E190E06F93A9
:1004F00064E06A95F1F76F910197C9F70895EF925B
:10050000FF920F931F93CF93DF93EC01FC01EA5A04
:10051000FF4F8EEC9FEF91838083329682E390E0D1
:100520009183808332968EE190E09183808332962E
:1005300080E090E0A0E0B0E480839183A283B38365
:10054000349680839183A283B3837E0184E6E80E90
:10055000F11CF70110828E010B591F4FF801108218
:10056000188219821A821B8280E090E0A0EAB2E42D
:100570008C839D83AE83BF83188619861A861B865B
:100580001C861D861E861F86188A198A1A8A1B8A4F
:100590001D8A1C8A1F8A1E8A188E198E1A8E1B8E1F
:1005A00081E08C8F18AA1FA61CA61BA61AA619A646
:1005B0001EA61DA619AA1AAA1BAA1CAA1FAA18AE13
:1005C00019AE1AAE1CAE1BAEB89710821182128201
:1005D0001382349610821182128213821D8E1E8E17
:1005E0001F8E18A219A28AA30E94C80F6BA37CA316
:1005F0008DA39EA318A61FA2FE01EF5AFF4F1082E3
:10060000F7011082F80110820E94C80FFE01EE5A15
:10061000FF4F60837183828393833D9710821182A1
:1006200012821382349610821182128213823496BF
:1006300010821182128213821EAA1DAACA59DF4F8C
:10064000188219821A821B82DF91CF911F910F911C
:10065000FF90EF900895CF92DF92EF92FF92CF93A9
:10066000DF93EC01288139814A815B816C857D852E
:100670008E859F850E947F106B017C012C813D81BE
:100680004E815F81688979898A899B890E947F1060
:10069000A7019601DF91CF91FF90EF90DF90CF906F
:1006A0000C94FF10CF93DF93EC010E944B1560FF79
:1006B0000DC00E944B152EE130E040E050E00E945A
:1006C00038106C5E7F4F8F4F9F4F0CC00E944B15B0
:1006D0002EE130E040E050E00E943810665A7F4F33
:1006E0008F4F9F4F0E9412126C877D878E879F8746
:1006F0000E944B1528E230E040E050E00E943810A4
:100700006C5E7F4F8F4F9F4F0E941212688B798BC8
:100710008A8B9B8B1C8E1AA2DF91CF910895CF926A
:10072000DF92EF92FF920F931F93CF93DF93EC0131
:10073000488359836A837B830C831D832E833F8385
:10074000C886D986EA86FB860E94C80F688F798F93
:100750008A8F9B8FDF91CF911F910F91FF90EF9028
:10076000DF90CF9008954F925F926F927F928F9219
:100770009F92AF92BF92CF92DF92EF92FF920F9330
:100780001F93CF93DF93CDB7DEB72C970FB6F894B6
:10079000DEBF0FBECDBF8C01DC0154966D917C9104
:1007A0005597072E000C880B990B0E94121220E01F
:1007B00030E04FE753E40E94681129E432E944EE47
:1007C00051E40E9435134B015C01F8016689778979
:1007D000072E000C880B990B0E94121220E030E0CB
:1007E0004FE753E40E94681129E432E944EE51E4F2
:1007F0000E9435132B013C019B01AC01C501B401E2
:100800000E94801020E030E040EE5FE30E9435134C
:1008100020E030E040E05FE30E9435136B017C0193
:10082000D80118968D919D910D90BC91A02D898332
:100830009A83AB83BC83BC01CD010E9463119B01F1
:10084000AC01C701B6010E9435136D837E838F838F
:10085000988769817A818B819C810E94A2139B0178
:10086000AC01C701B6010E94351369877A878B876F
:100870009C87F801C08CD18CE28CF38C0E94C80F4D
:10088000D80158966D937D938D939C935B976C19CB
:100890007D098E099F090E94121220E030E04AE78C
:1008A00054E40E9468116B017C019801205A3F4F6B
:1008B000D9018D919D910D90BC91A02D89839A8332
:1008C000AB83BC83A70196016D817E818F81988562
:1008D0000E94351329813A814B815C810E94351336
:1008E0009B01AC01F80160817181828193810E943A
:1008F0008010D8016D937D938D939C931397A701DE
:10090000960169857A858B859C850E94351329819E
:100910003A814B815C810E9435139B01AC01F80147
:1009200064817581868197810E948010D801149618
:100930006D937D938D939C931797A3019201C501AD
:10094000B4010E947F1020E030E040EE5FE30E949F
:1009500035132DEC3CEC44E151E40E946811A701F1
:1009600096010E943513F801E45AFF4F208131812E
:10097000428153810E9435139B01AC01F8016085CF
:100980007185828593850E948010D80118966D9399
:100990007D938D939C931B972C960FB6F894DEBF96
:1009A0000FBECDBFDF91CF911F910F91FF90EF90C0
:1009B000DF90CF90BF90AF909F908F907F906F907F
:1009C0005F904F9008958F929F92AF92BF92EF9257
:1009D000FF920F931F93CF93DF93FC0122A1222359
:1009E00081F060E070E080E090E0DF91CF911F91B6
:1009F0000F91FF90EF90BF90AF909F908F900C94CD
:100A0000DF0D8A017B01EC01858D8823B9F00E94FE
:100A1000C80F8E8C9F8CA8A0B9A0DC01CB018819CF
:100A20009909AA09BB0988319947A105B105C8F2FE
:100A30001D8E60E184E392E00E94F2088E899F8916
:100A40008017910729F48C899D898E159F0559F08F
:100A5000CE010E94B303B801C7010E94DF0DFD8AD9
:100A6000EC8A1F8B0E8BDF91CF911F910F91FF901E
:100A7000EF90BF90AF909F908F9008954F925F92AC
:100A80006F927F928F929F92AF92BF92CF92DF929E
:100A9000EF92FF920F931F93CF93DF93EC017C01B2
:100AA00081E5E80EF11CF70180818E010E5A1F4F7F
:100AB0008823B9F00E94C80FDC01CB01885A9D4FF2
:100AC000AF4FBF4FF80180839183A283B3833496E5
:100AD00060817181AB01CE010E94E304F7011082B5
:100AE000CFC10E94C80FF80100811181228133819A
:100AF000061717072807390720F0FE01EA5AFF4FAB
:100B000087C10E94C80FFE01EA59FF4F0081118181
:100B100022813381AB01BC01401B510B620B730B73
:100B2000413A8FE058076105710578F04137574128
:100B30006105710568F0D901C80188579C4EAF4F17
:100B4000BF4F80839183A283B3838AA1882329F036
:100B500040E050E060E070E080C18C8D8823D1F0EF
:100B600040E050E060E070E0CE010E94E304CE017E
:100B7000DF91CF911F910F91FF90EF90DF90CF9079
:100B8000BF90AF909F908F907F906F905F904F90AD
:100B90000C9452032C853D854E855F856881798153
:100BA0008A819B810E947F100E94DA119B0177FF4E
:100BB00004C022273327261B370BB901330F880BBC
:100BC000990B0E94121220E030E040E450E40E94B1
:100BD0005E1187FF33C0288939894A895B896C8116
:100BE0007D818E819F810E947F100E94DA119B017E
:100BF00077FF04C022273327261B370BB901330F99
:100C0000880B990B0E94121220E030E040E450E47F
:100C10000E945E1187FF12C040E050E060E070E08B
:100C2000CE010E94E3041C861D861E861F86188A3C
:100C3000198A1A8A1B8A81E08C8F22C1CE010E94F8
:100C40002B034B015C01488459846A847B84A30193
:100C500092010E947F106B017C0120E030E0A9012D
:100C6000C301B2010E945E1187FF0BC02BED3FE074
:100C700049EC50E4C301B2010E9480102B013C01F9
:100C8000ECCF2BED3FE049EC50E4C301B2010E94F0
:100C9000281318165CF42BED3FE049EC50E4C30137
:100CA000B2010E947F102B013C01EBCF20E030E02D
:100CB000A901C501B4010E945E1187FF0BC02BED95
:100CC0003FE049EC50E4C501B4010E9480104B01A3
:100CD0005C01ECCF2BED3FE049EC50E4C501B401E1
:100CE0000E94281318165CF42BED3FE049EC50E409
:100CF000C501B4010E947F104B015C01EBCF2BEDCD
:100D00003FE049E450E4C701B6010E9428131816D9
:100D10005CF42BED3FE049EC50E4C701B6010E94C2
:100D20007F106B017C01EBCF2BED3FE049E450ECF1
:100D3000C701B6010E945E1187FF0BC02BED3FE09B
:100D400049EC50E4C701B6010E9480106B017C01A0
:100D5000EBCF20EE3EE245E652E4C701B6010E9429
:100D600035134B015C0120E030E0A9010E945E11C7
:100D700087FF09C020E030E044EB53E4C501B40133
:100D80000E948010EECF0E94C80F0BA11CA12DA1C4
:100D90003EA1601771078207930770F4FE01E85ABD
:100DA000FF4F60817181AB01CE010E94E30484E0BA
:100DB00090E098A78FA364C020E030E040EC50E4BE
:100DC000C501B4010E945E1187FD0AC020E030E039
:100DD00041EB53E4C501B4010E9428131816E4F452
:100DE0008FA198A50297029760F40E94C80FDC01BA
:100DF000CB0188539F4FAF4FBF4F8BA39CA3ADA395
:100E0000BEA384E090E098A78FA3FE01E85AFF4FAD
:100E100060817181AB0121C020E030E0A901C701F0
:100E2000B6010E945E11FE01E65AFF4F87FF0BC01C
:100E300082E090E098A78FA34081518166277727B1
:100E4000641B750B0AC083E090E098A78FA36081B4
:100E5000718144275527461B570BCE01DF91CF9157
:100E60001F910F91FF90EF90DF90CF90BF90AF90C8
:100E70009F908F907F906F905F904F900C94E304C1
:100E8000DF91CF911F910F91FF90EF90DF90CF9066
:100E9000BF90AF909F908F907F906F905F904F909A
:100EA0000895CF93DF93EC010E94C80F69AB7AAB32
:100EB0008BAB9CAB80E00E94130D0E94750281E019
:100EC0000E94130D90E09CA78BA70E94750282E000
:100ED0000E94130D90E09EA78DA70E94750283E0EB
:100EE0000E94130D90E098AB8FA70E9475028BE0D3
:100EF0000E94130D90E09AA789A7DF91CF910C94DF
:100F00007502CF93DF93EC0140E050E060E070E0C9
:100F10000E94E30481E08D8F61E185E492E00E940C
:100F2000F2080E94C80F6E8F7F8F88A399A3DF916C
:100F3000CF9108954F925F926F927F928F929F927E
:100F4000AF92BF92CF92DF92EF92FF920F931F93D7
:100F5000CF93DF93CDB7DEB727970FB6F894DEBFF8
:100F60000FBECDBF8C01FC016085718582859385A4
:100F70000E94DA112B013C016B01F8016081718143
:100F8000828193810E94DA114B015C017B01F8019F
:100F900064817581868197810E94DA118B019C01A1
:100FA000FB0180E38983C20157FE02C081509F4F3D
:100FB0009A83C60160E071E00E9402108B83C40135
:100FC000F7FE02C081509F4F9C83C70160E071E033
:100FD0000E9402108D83C801F7FF02C081509F4F0D
:100FE0009E83CF0160E071E00E9402108F8347E092
:100FF00050E0BE016F5F7F4F8BEE93E00E94A60A28
:1010000027960FB6F894DEBF0FBECDBFDF91CF910C
:101010001F910F91FF90EF90DF90CF90BF90AF9016
:101020009F908F907F906F905F904F9008958F92D8
:101030009F92AF92BF92EF92FF920F931F93CF9325
:10104000DF93CDB7DEB727970FB6F894DEBF0FBE9C
:10105000CDBF8C010E945107F80165A576A581A539
:1010600092A50E941E097C01F80167A570A983A5BD
:1010700094A50E941E09B7010E941E097C01F80177
:1010800087A890ACA1ACB2AC81149104A104B104C6
:10109000A1F485A996A9E816F9060CF483C00E946C
:1010A000C80FDC01CB0188519C4FAF4FBF4FF801F7
:1010B00087AB90AFA1AFB2AF0EC00E94C80F68154A
:1010C00079058A059B0510F5F80183AD94AD8E1561
:1010D0009F050CF067C0F4AEE3AE9801235C3F4F70
:1010E00080819181A281B381F90180839183A28360
:1010F000B3832C5F3F4FF80184819581A681B7812E
:10110000F90180839183A283B3834CC089E68983EC
:101110001A82F80183AD8B8320E030E040E251E495
:10112000FD9660817181828193810E9435130E94B6
:10113000DA119B01AB0177FF02C041505F4F5C8326
:10114000C90160E071E00E9402108D8320E030E070
:1011500040E251E4F801EF5BFF4F608171818281D1
:1011600093810E9435130E94DA119B01AB0177FF36
:1011700002C041505F4F5E83C90160E071E00E9490
:1011800002108F8347E050E0BE016F5F7F4F8BEE10
:1011900093E00E94A60AF80117AA10AE11AE12AE93
:1011A00014AE13AE27960FB6F894DEBF0FBECDBFB8
:1011B000DF91CF911F910F91FF90EF90BF90AF9073
:1011C0009F908F900895E6EBF3E0119284E0ED3765
:1011D000F807D9F762E386EB93E00E94620E109263
:1011E000E80308950C940E0F0F931F93CF93DF9392
:1011F00000D000D000D0CDB7DEB72AE02E83FE01AC
:1012000036969E012F5F3F4F0AE010E0B8010E9422
:10121000EE0F805D8293CB01E217F307B9F766E02A
:10122000CF010E940E0F26960FB6F894DEBF0FBEB8
:10123000CDBFDF91CF911F910F910895861797072A
:101240000CF4CB0108956F9364E06A95F1F76F9108
:101250000197C9F70895CF93DF931F92CDB7DEB7FB
:101260005C988EE190E00E9423098FEF898361E012
:10127000CE0101960E947E0C5C9A8EE190E00E9465
:10128000230981E090E00E94900F898190E00F9007
:10129000DF91CF9108950F931F93CF93DF931F9208
:1012A000CDB7DEB78C015C988EE190E069830E9437
:1012B000230982E390E00E9423096981C8010E940A
:1012C0007E0C5C9A8EE190E00E94230981E090E020
:1012D0000F90DF91CF911F910F910C94900FCF93AE
:1012E000DF931F92CDB7DEB782EE898361E070E0B5
:1012F000CE0101960E944B0981EE898361E070E086
:10130000CE0101960E944B090F90DF91CF91089575
:10131000FF920F931F93CF93DF9300D0CDB7DEB72B
:101320008C01F62E5C988EE190E04A830E9423099E
:101330004A81498361E0CE0101960E947E0C82E3DE
:1013400090E00E9423096F2DC8010E947E0C5C9AD8
:101350008EE190E00E94230981E090E00E94900FCE
:101360000F900F90DF91CF911F910F91FF900895F3
:101370000F931F93CF93DF9300D0CDB7DEB7182F15
:10138000062F853089F48091E9039091EA03019654
:101390009093EA038093E903039734F065E387E5CC
:1013A00092E00E94F20820C05C988EE190E00E94DA
:1013B00023091F7110621A8361E0CE0102960E9418
:1013C0007E0C82E390E00E942309098361E0CE0154
:1013D00001960E947E0C5C9A8EE190E00E942309A7
:1013E00081E090E00E94900F0F900F90DF91CF91DD
:1013F0001F910F910895DF92EF92FF920F931F9329
:10140000CF93DF9300D000D000D0CDB7DEB7F82E59
:10141000FB0135968E010F5F1F4FCE010696D02E31
:10142000E12E2291D8012D938D01A817B907C9F794
:101430005C988EE190E00E9423092F2D2F7120628D
:101440002E8361E0C8010E947E0C82E390E00E943E
:10145000230965E08D2D9E2D0E947E0C5C9A8EE105
:1014600090E00E94230981E090E00E94900F269670
:101470000FB6F894DEBF0FBECDBFDF91CF911F91A5
:101480000F91FF90EF90DF900895CF931092EA03B1
:101490001092E90381EE8093F90380EF8093F803C3
:1014A0008093F7038093F6038093F50389EE80938E
:1014B000F40389E68093F30380E68093F20385E3E7
:1014C0008093F10382EC8093F0038DEC8093EF0323
:1014D00083E78093EE0388E68093ED0385EA8093AB
:1014E000EC0387EB8093EB036FE382E00E94B80983
:1014F0006AE884E00E94B8096FE685E00E94B809B6
:1015000066E086E00E94B809C1E160E28C2F0E948B
:10151000B809CF5FC731C9F76FE38CE10E94B80902
:1015200067E08DE10E94B80960EF73E08AE090E027
:101530000E94FB096FE080E00E94B8090E946F09D9
:101540005F9A8EE190E0CF910C942309AF92BF9205
:10155000CF92DF92EF92FF920F931F93CF93DF937F
:10156000CDB7DEB76C015B017A010DB71EB7BC01C8
:1015700080E190E00E94FB09B6018AE090E00E94C1
:10158000FB096EE080E00E94B809B7016F5F7F4FF2
:101590008DB79EB7861B970B0FB6F8949EBF0FBEF4
:1015A0008DBF019640EAEDB7FEB74183F501DC013E
:1015B0001196AD01481B590BE416F5061CF041913C
:1015C0004D93F7CF0E944B090E94C80F6B017C011D
:1015D0000E942B0980739927892B71F40E94C80FF0
:1015E000DC01CB018C199D09AE09BF090B97A10540
:1015F000B10570F30E946F0960E387E00E94B809AB
:1016000060EF73E08AE090E00E94FB096FE080E009
:101610000E94B8090FB6F8941EBF0FBE0DBFDF9130
:10162000CF911F910F91FF90EF90DF90CF90BF90DF
:10163000AF900895AF92BF92CF92DF92EF92FF9258
:101640000F931F93CF93DF93CDB7DEB72B970FB6D2
:10165000F894DEBF0FBECDBF7C01CDB6DEB640E64E
:1016600061E070E0CE010B960E9488096B856623CD
:1016700009F42EC170E08DB79EB7861B970B0FB68D
:10168000F8949EBF0FBE8DBF0DB71EB70F5F1F4FE3
:1016900041E6C8010E948809F8018081803509F47B
:1016A000B3C008F041C0823409F48FC0A0F5813086
:1016B00009F409C1803309F001C15701FDE4AF0EFF
:1016C000B11CF801618170E0762F66278281680F76
:1016D000711D072E000C880B990B0E941212F50148
:1016E0006083718382839383F5E4EF0EF11CF8012C
:1016F000658170E0762F66278681680F711D072E41
:10170000000C880B990B0E941212F7016083718301
:1017100082839383D8C0843409F470C008F459C01C
:10172000853409F4D0C0CAC0823609F488C0C8F52F
:10173000803609F47EC0813609F0C0C06AE186ECCB
:1017400092E00E94F208C7010E948107F8014581DA
:1017500050E0542F44278681480F511D638170E06B
:10176000762F66278481680F711D818190E0982F04
:1017700088272281820F911D0E94CF00F701148ECD
:1017800080E090E0ACE8B2E484879587A687B787CD
:1017900080E090E0A0E2B2E4808B918BA28BB38BCF
:1017A00092C0803709F48FC0813809F46BC0863647
:1017B00009F084C087E68A8761E0CE010A960E941C
:1017C000F20869E0CE0101967CC06FE08DE892E0FE
:1017D00078C0F80111816DE08DE992E00E94F20875
:1017E000812F90E00E94F408612F85E00E94B809E3
:1017F0000E946F09F701EC59FF4F03C0F701EB5945
:10180000FF4F81E080835FC0F801818190E0982FD5
:1018100088272281820F911D019621E520839183E3
:10182000828343E050E0B80185EF93E00E94A60A6E
:101830004AC0F70112A26AE18BEA92E008C0F70100
:10184000EF5AFF4F81E0808364E180EE92E00E94D6
:10185000F208F801458150E0542F44278681480F53
:10186000511D638170E0762F66278481680F711D9A
:10187000818190E0982F88272281820F911D0E94FC
:10188000CF0021C06BE085EF92E00E94F208780162
:101890008B8590E09701201B310B2817390754F4F2
:1018A000F70181917F01898361E0CE0101960E9459
:1018B000F208EECF61E08EEF92E003C06AE180E0D3
:1018C00093E00E94F2080FB6F894DEBE0FBECDBEC4
:1018D0000FB6F894DEBE0FBECDBE2B960FB6F894B1
:1018E000DEBF0FBECDBFDF91CF911F910F91FF9053
:1018F000EF90DF90CF90BF90AF9008951F93CF935C
:10190000DF932C98FC0170E0A1E0B0E09F01281B60
:10191000390B261737079CF527E030E0408150E06F
:10192000022E02C0559547950A94E2F740FF02C087
:101930002D9A01C02D9846E04A95F1F700C02C9AE7
:101940001081189B09C0ED01022E01C0CC0F0A9432
:10195000EAF7C12BC08309C0AD01022E01C0440FBC
:101960000A94EAF740954123408346E04A95F1F70F
:1019700000C02C982150310988F63196C7CFDF91ED
:10198000CF911F91089584B1826384B98AB180692F
:101990008AB93D9A20985298459A8EE190E0FC01D0
:1019A0006F9364E06A95F1F76F913197C9F75C9A8C
:1019B0006F9364E06A95F1F76F910197C9F75F98AB
:1019C00080E48093800089E08093810010928200FF
:1019D000109285001092840084E090E0909389003A
:1019E0008093880010928B0010928A005A9AE9E640
:1019F000F0E080818260808380818E7F8083E89A9E
:101A000008951F920F920FB60F9211240F900FBEE0
:101A10000F901F9018956F9364E06A95F1F76F919E
:101A20000197C9F708951F93CF93DF931F92CDB706
:101A3000DEB7182F2C9845988EE190E00E940B0D90
:101A400083E090E00E940B0D1295107F198361E0F6
:101A5000CE0101960E947E0C459A8EE190E00E9494
:101A60000B0D89810F90DF91CF911F9108958830E0
:101A700058F491E001C0990F8A95EAF7892FAAE2FC
:101A8000B0E0EBE2F0E021C08E3060F498EF980F08
:101A900081E001C0880F9A95EAF7A4E2B0E0E5E2A0
:101AA000F0E013C0853160F492EF980F81E001C03F
:101AB000880F9A95EAF7A7E2B0E0E8E2F0E005C007
:101AC00080E0A0E0B0E0E0E0F0E06F3F19F490814A
:101AD000982709C0662319F09081982B04C02081B3
:101AE000982F9095922390839C91982B9C93089586
:101AF00083EF8093B00084BD82E08093B10085BD08
:101B00001092B4001092B30018BC17BC60E086E0DD
:101B10000E94370D60E085E00E94370D60E08BE0A9
:101B20000E94370D60E083E00E94370D0895809198
:101B3000FA03811105C081E08093FA030E94780DB9
:101B40000895CF93DF93EC010E94970DD7FF05C056
:101B5000D195C195D10981E001C080E0CF3FD10589
:101B600019F014F0CFEFD0E0882319F018BCC7BDEE
:101B700002C0C8BD17BCDF91CF910895CF93DF930A
:101B8000EC010E94970DD7FF05C0D195C195D109F1
:101B900081E001C080E0CF3FD10519F014F0CFEF14
:101BA000D0E0882329F01092B400C093B30004C0A1
:101BB000C093B4001092B300DF91CF910895CF93FA
:101BC000DF93EB010E94A10DCE010E94BE0DDF91BB
:101BD000CF910895282F30E09AE0899FF0011124D9
:101BE000EA5AFC4F80859185009721F0528144810B
:101BF000541780F08AE0829FF001839FF00D11243A
:101C0000EA5AFC4F9281848198130EC0858181111C
:101C10000AC008954281DC01A40FB11D6C9382813A
:101C20008F5F8283E7CF12820895CF93DF939091E5
:101C3000C1009F779093C100C82FD0E09AE0899FA0
:101C4000F0011124EA5AFC4F20853185232B41F005
:101C500022819481291720F49091C00097FD11C032
:101C60008AE08C9FF0018D9FF00D1124EA5AFC4F01
:101C7000808181110BC08091C10080688093C10078
:101C800005C06091C6000E94EA0DEACFDF91CF91B6
:101C900008959091C1009F779093C1009AE0899F29
:101CA000F0011124EA5AFC4F718760871282448345
:101CB00025838081811105C08091C1008068809357
:101CC000C1000895462F20E0BC0180E00E94490E2B
:101CD00008951F920F920FB60F9211242F933F93E6
:101CE0004F935F936F937F938F939F93AF93BF9324
:101CF000EF93FF936091C60080E00E94EA0DFF9190
:101D0000EF91BF91AF919F918F917F916F915F9173
:101D10004F913F912F910F900FBE0F901F901895EC
:101D20009AE0899FF0011124EA5AFC4F868197813D
:101D3000892B59F091818381981738F48081811122
:101D400004C08091C100806203C08091C1008F7D7A
:101D50008093C10008959AE0899FF0011124EA5A06
:101D6000FC4F9081911102C098E901C098E19093D5
:101D7000C1000E94900E78940895CF92DF92EF9266
:101D8000FF926B017C0180E00E94AB0EA8EFBFEFD9
:101D9000A70196010E946510735D8E4C9E4FF4E082
:101DA000220F331F441F551FFA95D1F70E941610BA
:101DB0003093C5002093C400FF90EF90DF90CF9048
:101DC00008959AE0899FF0011124EA5AFC4F268178
:101DD00037812115310541F041819381491720F464
:101DE0009091C00095FD03C00E94900E08959181CE
:101DF000D901A90FB11D9C919093C60091819F5F5D
:101E00009183F2CFE1ECF0E080818F7D808380E0F0
:101E10000E94E10E80E00E94150E089590935D03EC
:101E200080935C03109257036093590380E00E94F3
:101E3000900E9091570380915903981719F00E94C2
:101E4000020FF7CF08951F920F920FB60F92112431
:101E50002F933F934F935F936F937F938F939F93B2
:101E6000AF93BF93EF93FF9380E00E94E10EFF9149
:101E7000EF91BF91AF919F918F917F916F915F9102
:101E80004F913F912F910F900FBE0F901F9018957B
:101E90002F928F939F932FB6809167039091680341
:101EA0000196809367039093680390E080916903A3
:101EB000891F80936903909161039C5F90936103F4
:101EC0008091600380519742C0F0909361038093AA
:101ED0006003809162039091630301968093620393
:101EE0009093630390E080916403891F809364035F
:101EF00080916503891F809365032FBE9F918F9109
:101F00002F90189528EE33E0019748F0F9016F9370
:101F100064E06A95F1F76F913197C9F7F5CF0895AD
:101F20000E94820F0895E0E7F0E080818E7F808339
:101F3000A0EBB0E08C9183608C93A1EBB0E08C912E
:101F4000807F8C938C9182608C93B89A8081816021
:101F50008083789408958091FB03811105C081E00E
:101F60008093FB030E94930F08950E94AB0FE0E75C
:101F7000F0E080818E7F80836091620370916303C3
:101F800080916403909165032081216020830895EE
:101F90000E94B50F08958AE693E00E94D00F08953D
:101FA000CF93DF93EC018A819B81009711F00E940F
:101FB00065148E819F81009711F00E9465148881BD
:101FC0009981009711F00E9465148C819D81009782
:101FD00011F00E946514DF91CF910895AA1BBB1BDD
:101FE00051E107C0AA1FBB1FA617B70710F0A61B19
:101FF000B70B881F991F5A95A9F780959095BC013A
:10200000CD01089597FB072E16F4009407D077FDB5
:1020100009D00E94EE0F07FC05D03EF49095819503
:102020009F4F0895709561957F4F0895A1E21A2EF4
:10203000AA1BBB1BFD010DC0AA1FBB1FEE1FFF1F6C
:10204000A217B307E407F50720F0A21BB30BE40BBC
:10205000F50B661F771F881F991F1A9469F7609503
:102060007095809590959B01AC01BD01CF010895BD
:10207000052E97FB1EF400940E944F1057FD07D0C9
:102080000E94161007FC03D04EF40C944F1050958C
:102090004095309521953F4F4F4F5F4F0895909554
:1020A0008095709561957F4F8F4F9F4F08950E9447
:1020B0007010A59F900DB49F900DA49F800D911D51
:1020C00011240895B7FF0C9457100E945710821BDB
:1020D000930B0895EE0FFF1F0590F491E02D0994E6
:1020E000A29FB001B39FC001A39F700D811D112459
:1020F000911DB29F700D811D1124911D089550589E
:10210000BB27AA270E9497100C94DA120E94A112F2
:1021100038F00E94A81220F039F49F3F19F426F4F9
:102120000C9477120EF4E095E7FB0C947112E92FF2
:102130000E94FF1258F3BA176207730784079507C6
:1021400020F079F4A6F50C9421130EF4E0950B2EF3
:10215000BA2FA02D0B01B90190010C01CA01A001F9
:102160001124FF27591B99F0593F50F4503E68F154
:102170001A16F040A22F232F342F4427585FF3CF95
:10218000469537952795A795F0405395C9F77EF466
:102190001F16BA0B620B730B840BBAF09150A1F0AF
:1021A000FF0FBB1F661F771F881FC2F70EC0BA0F35
:1021B000621F731F841F48F4879577956795B795BD
:1021C000F7959E3F08F0B0CF9395880F08F09927B8
:1021D000EE0F9795879508950E94A11260F080E810
:1021E00091E009F49EEF0E94A81228F040E851E027
:1021F00071F45EEF0CC00C9477120C942113E92F4C
:10220000E0780E94FF1240F3092E052AB1F3261749
:1022100037074807590738F00E2E07F8E02569F010
:10222000E025E0640AC0EF6307F8009407FADB01D9
:10223000B9019D01DC01CA01AD01EF930E947F113C
:102240000E94DA120E942F115F91552339F02BED75
:102250003FE049E450FD49EC0C9480100895DF9371
:10226000DD27B92FBF7740E85FE31616170648074A
:102270005B0718F4D92F0E942D139F938F937F93A0
:102280006F930E94AA13E8E6F0E00E947A120E947F
:10229000DA122F913F914F915F910E944813DD23F5
:1022A00051F09058A2EA2AED3FE049EC5FE3D07884
:1022B0005D270E949710DF910C94DA120E944D1254
:1022C00008F481E008950E94B112E3950C94EB129A
:1022D0000E947C110C94DA120E94A81258F00E94FD
:1022E000A11240F029F45F3F29F00C9471125111B2
:1022F0000C9422130C9477120E94FF1268F3992316
:10230000B1F3552391F3951B550BBB27AA276217F1
:102310007307840738F09F5F5F4F220F331F441FFE
:10232000AA1FA9F335D00E2E3AF0E0E832D0915032
:102330005040E695001CCAF72BD0FE2F29D0660F1F
:10234000771F881FBB1F261737074807AB07B0E862
:1023500009F0BB0B802DBF01FF2793585F4F3AF068
:102360009E3F510578F00C9471120C9422135F3F3C
:10237000E4F3983ED4F3869577956795B795F795EE
:102380009F5FC9F7880F911D9695879597F90895D6
:10239000E1E0660F771F881FBB1F62177307840772
:1023A000BA0720F0621B730B840BBA0BEE1F88F781
:1023B000E09508950E94E1116894B1110C942213E4
:1023C00008950E94071388F09F5798F0B92F992716
:1023D000B751B0F0E1F0660F771F881F991F1AF010
:1023E000BA95C9F714C0B13091F00E942113B1E041
:1023F00008950C942113672F782F8827B85F39F040
:10240000B93FCCF3869577956795B395D9F73EF4A8
:1024100090958095709561957F4F8F4F9F4F089550
:10242000E89409C097FB3EF490958095709561956E
:102430007F4F8F4F9F4F9923A9F0F92F96E9BB2724
:102440009395F695879577956795B795F111F8CFA0
:10245000FAF4BB0F11F460FF1BC06F5F7F4F8F4F0B
:102460009F4F16C0882311F096E911C0772321F001
:102470009EE8872F762F05C0662371F096E8862F99
:1024800070E060E02AF09A95660F771F881FDAF7F0
:10249000880F9695879597F90895990F0008550F1D
:1024A000AA0BE0E8FEEF16161706E807F907C0F0DA
:1024B00012161306E407F50798F0621B730B840BE2
:1024C000950B39F40A2661F0232B242B252B21F4BC
:1024D00008950A2609F4A140A6958FEF811D811D5C
:1024E000089597F99F6780E870E060E008959FEF96
:1024F00080EC0895DF93CF931F930F93FF92EF9299
:10250000DF927B018C01689406C0DA2EEF010E94F5
:102510004813FE01E894A591259135914591559177
:10252000A6F3EF010E949710FE019701A801DA942B
:1025300069F7DF90EF90FF900F911F91CF91DF919E
:10254000089500240A941616170618060906089519
:1025500000240A94121613061406050608950C9416
:1025600077120E940713D8F3E894E0E0BB279F5747
:10257000F0F02AED3FE049EC06C0EE0FBB0F661FFE
:10258000771F881F28F0B23A62077307840728F084
:10259000B25A620B730B840BE3959A9572F78038ED
:1025A00030F49A95BB0F661F771F881FD2F79048AB
:1025B0000C94B013092E0394000C11F4882352F0EC
:1025C000BB0F40F4BF2B11F460FF04C06F5F7F4F5F
:1025D0008F4F9F4F0895EF93E0FF07C0A2EA2AEDC7
:1025E0003FE049EC5FEB0E9497100E94DA120F90D7
:1025F000039401FC9058E5E9F0E00C94BC1357FDFE
:102600009058440F551F59F05F3F71F04795880F60
:1026100097FB991F61F09F3F79F0879508951216F7
:1026200013061406551FF2CF4695F1DF08C01616A3
:1026300017061806991FF1CF869571056105089454
:102640000895E894BB2766277727CB0197F908956B
:102650000E944D1208F48FEF08959B01AC0160E0D9
:1026600070E080E89FE30C9468110E9448130C947A
:10267000DA120E94A11238F00E94A81220F09523CD
:1026800011F00C9471120C94771211240C942213F3
:102690000E94FF1270F3959FC1F3950F50E0551FF4
:1026A000629FF001729FBB27F00DB11D639FAA27A7
:1026B000F00DB11DAA1F649F6627B00DA11D661FF6
:1026C000829F2227B00DA11D621F739FB00DA11D17
:1026D000621F839FA00D611D221F749F3327A00DD1
:1026E000611D231F849F600D211D822F762F6A2F6D
:1026F00011249F5750409AF0F1F088234AF0EE0FD2
:10270000FF1FBB1F661F771F881F91505040A9F7FE
:102710009E3F510580F00C9471120C9422135F3F80
:10272000E4F3983ED4F3869577956795B795F7953A
:10273000E7959F5FC1F7FE2B880F911D96958795B2
:1027400097F908959F930E94B1120F9007FCEE5FD6
:102750000C94EB129B01AC010C9435139F3F31F0AC
:10276000915020F4879577956795B795880F911DBF
:102770009695879597F908959F938F937F936F937D
:10278000FF93EF939B01AC010E943513EF91FF91F2
:102790000E947A122F913F914F915F910C943513C3
:1027A000CF93DF938230910510F482E090E0E091C6
:1027B000FE03F091FF0320E030E0C0E0D0E030976E
:1027C00011F14081518148175907C0F04817590746
:1027D00061F482819381209719F09B838A832BC0B7
:1027E0009093FF038093FE0326C02115310519F055
:1027F0004217530718F49A01BE01DF01EF0102806E
:10280000F381E02DDCCF2115310509F1281B390BAF
:102810002430310590F412968D919C911397611597
:10282000710521F0FB019383828304C09093FF0321
:102830008093FE03FD01329644C0FD01E20FF31FB9
:1028400081939193225031092D933C933AC020916A
:10285000FC033091FD03232B41F4209102013091C0
:1028600003013093FD032093FC032091000130917C
:1028700001012115310541F42DB73EB74091040106
:1028800050910501241B350BE091FC03F091FD03F1
:10289000E217F307A0F42E1B3F0B2817390778F037
:1028A000AC014E5F5F4F2417350748F04E0F5F1F96
:1028B0005093FD034093FC038193919302C0E0E0A9
:1028C000F0E0CF01DF91CF9108950F931F93CF9345
:1028D000DF93009709F48CC0FC01329713821282B7
:1028E0000091FE031091FF030115110581F4208171
:1028F0003181820F931F2091FC033091FD03281733
:10290000390779F5F093FD03E093FC0371C0D8011A
:1029100040E050E0AE17BF0750F412962D913C9165
:102920001397AD012115310509F1D901F3CF9D01AF
:10293000DA013383228360817181860F971F8217AA
:10294000930769F4EC0128813981260F371F2E5F28
:102950003F4F318320838A819B8193838283452BE0
:1029600029F4F093FF03E093FE0342C01396FC9317
:10297000EE931297ED01499159919E01240F351F55
:10298000E217F30771F480819181840F951F0296FD
:1029900011969C938E938281938113969C938E9330
:1029A0001297E0E0F0E0D80112968D919C91139778
:1029B000009719F0F8018C01F6CF8D919C91980148
:1029C0002E5F3F4F820F931F2091FC033091FD0338
:1029D0002817390769F4309729F41092FF031092F1
:1029E000FE0302C0138212821093FD030093FC03C6
:1029F000DF91CF911F910F9108958F929F92AF9287
:102A0000BF92CF92DF92EF92FF92CF93DF93EC01D0
:102A1000688179818A819B816115710581059105A4
:102A200021F464E279ED8BE597E02DE133EF41E0AD
:102A300050E00E94381049015A019B01AC01A7EAFD
:102A4000B1E40E9457106B017C01ACEEB4EFA5011C
:102A500094010E946510DC01CB018C0D9D1DAE1D03
:102A6000BF1DB7FF03C00197A109B04888839983B0
:102A7000AA83BB83BC01CD019F77DF91CF91FF90EB
:102A8000EF90DF90CF90BF90AF909F908F90089580
:102A90000E94FD14089586E091E00E94FD140895BF
:102AA00060930601709307018093080190930901D8
:102AB000089510E0CAE5D0E004C0FE010E946A104B
:0C2AC0002196CB35D107C9F7F894FFCF61
:102ACC000000000480000100000052656164696E22
:102ADC0067204461726B3A200052656164696E67CD
:102AEC00204272696768743A20004D656469616EB2
:102AFC003A20002D2D2D2053746172742053657271
:102B0C0069616C204D6F6E69746F72202D2D2D0ACA
:102B1C000053504920616E6420524620496E6974FE
:102B2C0069616C697A6174696F6E20636F6D706C2A
:102B3C006574650A0048454C4C4F2073656E740AE9
:102B4C0000434F4E4649472072656365697665645C
:102B5C000A0057616974696E6720666F7220474F6F
:102B6C00204D6573736167650A00474F2121210A67
:102B7C00004C494748543A2066726F6E743D0020F1
:102B8C0072696768743D00206261636B3D00206C64
:102B9C006566743D005374616E74207374696C6C5B
:102BAC000A0052696768742073656E736F72206CCB
:102BBC006F776573740A004261636B2073656E7383
:102BCC006F72206C6F776573740A0046726F6E7447
:102BDC002073656E736F72206C6F776573740A0067
:102BEC004C6566742073656E736F72206C6F7765BD
:102BFC0073740A004F4F422050756E697368206FD2
:102C0C007665720A004F4F422050756E69736820CA
:102C1C0073746172740A005445414D204348414E0F
:102C2C004E454C204F4E4C5920414C4C4F5745442F
:102C3C0020544F20424520534554204154204D4FA1
:102C4C0053542054574943452121210A00526566AB
:102C5C002073656E742048454C4C4F0A004E6577C6
:102C6C00206368616E6E656C3A2000506F736974F6
:102C7C00696F6E2075706461746520726563656937
:102C8C00766564210A004F4F4220504F53207570D7
:102C9C0064617465207265636569766564210A00F8
:102CAC00436F6C6C6973696F6E20726563656976CE
:102CBC006564210A004D6573736167653A200A00EB
:102CCC00496C6C6567616C204D6573736167652039
:102CDC004964656E74696665720A0052656769734A
:102CEC007465722000203D202800290A00414444CC
:102CFC00522052656769737465723A2030412028FE
:102D0C0000414444522052656769737465723A20DD
:062D1C0031302028000008
:00000001FF
